:4000000000800020110000009D1900009D19000008B5044B1A6803F53F5302331A6001F0D7FC00BFFA46004010B5054C237833B9044B13B10448AFF300800123237010BD37
:40004000A081FF1F0000000048320000084B10B51BB108480849AFF300800848036803B910BD074B002BFBD0BDE81040184700BF0000000048320000A481FF1F0881FF1F1D
:400080000000000000F1080343604FF0FF328260C360036100230360704700BF00230361704700BF43684B609A688A609A68516099600861036801330360704730B40D6866
:4000C000B5F1FF3F01D1026907E000F1080200E01A4653681C68AC42FAD953684B6099608A605160086103680133036030BC704703694268816891608268416851605A68BF
:40010000824201D182685A6000220261186801381860704706480068006880F3088862B661B6BFF34F8FBFF36F8F00DF00BF000008ED00E04FF0807340F8043C40F8081C0F
:40014000034B40F80C3C40F8202C4038704700BFA1010000074B19680868B0E8F00F80F30988BFF36F8F4FF0000080F311884EF00D0E70479082FF1F4FF08052034B1A60AB
:40018000BFF34F8FBFF36F8F704700BF04ED00E0EFF311804FF0A00181F311887047002008B5FFF7F5FFFEE708B5FFF7F1FF044A136801331360BFF34F8FBFF36F8F08BDDD
:4001C0000C81FF1F80F31188704700BF08B5044A1368013B136013B90020FFF7F3FF08BD0C81FF1FEFF30980BFF36F8F0D4B1A6820E9F00F10602DE908404FF0A00080F33C
:40020000118800F01BFD4FF0000080F31188BDE8084019680868B0E8F00F80F30988BFF36F8F70479082FF1F08B5FFF7B1FF00F0C7FB18B14FF08052024B1A600020FFF7F6
:40024000C1FF08BD04ED00E0034A044B1A600722043B1A60704700BFCF01010014E000E008B5094B1A6842F460021A601A6842F060421A60FFF7E8FF0022044B1A60FFF7E2
:4002800049FFFFF78DFF00BF20ED00E00C81FF1F10B50446FFF788FFA26BE36B9A4201D1012400E00024FFF791FF204610BD00BF10B50446FFF778FFA36B0BB9012400E094
:4002C0000024FFF783FF204610BD00BF38B504461546026C3AB903685BBB406800F0FCFD002363602CE06DB9806802F08FFBA268236C1344A360626893421CD32368A360E0
:4003000000201DE0C06802F081FB236C5B42E2681A44E26021688A4202D262681344E360022D0AD1A36B53B1A36B013BA363002006E0002004E0002002E0002000E00020CF
:40034000A36B0133A36338BD026C72B110B5C3681344C3604468A34201D30368C36003460846D96802F052FB10BD704710B50446FFF71AFF0BE0636A63B104F1240000F0C4
:40038000DDFC08B100F048FDA36C013BA364A36C002BF0DC4FF0FF33A364FFF717FFFFF703FF0BE0236963B104F1100000F0C6FC08B100F031FD636C013B6364636C002BBD
:4003C000F0DC4FF0FF336364FFF700FF10BD00BF38B504460D46FFF7E7FE2168E26B236C03FB021060600020A063A160013A02FB0313E3604FF0FF336364A36455B9236950
:4004000083B104F1100000F099FC01280AD1FFF7B3FE07E004F11000FFF734FE04F12400FFF730FEFFF7D2FE012038BD70B506460D4619B101FB00F0013000E000204C30FF
:4004400000F0B4FD044658B10DB9206002E000F14C030360E663256420460121FFF7B8FF204670BDF0B585B004460F4601921E460025FFF799FEA26BE36B9A4201D3022EC6
:4004800016D1204639463246FFF720FF636A43B104F1240000F052FC012805D1FFF76CFE02E008B1FFF768FEFFF790FE012042E0019B1BB9FFF78AFE00203CE01DB902A804
:4004C00000F074FC0125FFF781FE00F06FFAFFF76BFE636CB3F1FF3F01D100236364A36CB3F1FF3F01D10023A364FFF76FFE02A801A900F065FCC0B92046FFF7C9FE70B12A
:4005000004F11000019900F0EDFB2046FFF72EFF00F0D8FA0028ACD1FFF72EFEA9E72046FFF724FF00F0CEFAA3E72046FFF71EFF00F0C8FA002005B0F0BD00BF38B54C201C
:4005400000F034FD0446C8B10025456005608560C56085630123C36305644FF0FF33436483641030FFF78EFD04F12400FFF78AFD204629462A462B46FFF774FF204638BDF3
:400580002DE9F04104460F4690461D46FFF700FE0646A26BE36B9A4201D3022D1BD1204639462A46FFF792FEA36CB3F1FF3F0DD1636A93B104F1240000F0C0FB78B1B8F165
:4005C000000F0ED00124C8F800400BE0A36C0133A364012406E0002404E0012402E0012400E001243046FFF7EDFD2046BDE8F081F0B585B004460F4601921E460025FFF713
:40060000D3FDA36B33B3E56820463946FFF79CFE96B9A36B013BA363236813B900F09EFC6060236993B104F1100000F087FB01280CD1FFF7A1FD09E0E560636A33B104F13F
:40064000240000F07BFB08B1FFF796FDFFF7BEFD01204BE0019B1BB9FFF7B8FD002045E01DB902A800F0A2FB0125FFF7AFFD00F09DF9FFF799FD636CB3F1FF3F01D10023C4
:400680006364A36CB3F1FF3F01D10023A364FFF79DFD02A801A900F093FB08BB2046FFF707FEB8B1236833B9FFF77EFD606800F0BBFBFFF78BFD04F12400019900F012FB13
:4006C0002046FFF753FE00F0FDF9002897D1FFF753FD94E72046FFF749FE00F0F3F98EE72046FFF743FE00F0EDF9002005B0F0BD10B50446FFF758FDA46BFFF767FD204604
:4007000010BD00BF094B9B6A1B680BB9012300E0002323B14FF0FF32044BDA627047034B9A6AD268D2685268DA627047BC81FF1F10B50446006B00F093FC204600F090FC37
:4007400010BD00BF70B506460C4619B9800000F02DFC044654B1502000F028FC054608B1046304E0204600F07BFC00E0002525B1286BA521B20002F054F9284670BD00BF51
:4007800070B504461546002306E0C85CE21882F83400CA5C12B101330B2BF6D9002384F83F30042D00D90425E562256400266664201DFFF773FC04F11800FFF76FFC2461E2
:4007C000C5F10505A5616462A66484F84C6070BD70B5002407E004EB84039B0010481844FFF750FC0134042CF5D90E4C04F194063046FFF747FC04F1A8052846FFF742FCC8
:4008000004F11400FFF73EFC04F1BC00FFF73AFC2046FFF737FCA662C4F8D05070BD00BFEC81FF1FBC81FF1F38B504460E4BD3F8D4205060D3F8D830984208D20A4BD3F8B7
:40084000D000D3F8D4100431FFF738FC38BD064DA86AD5F8D4100431FFF730FCEB6A9C4200D2EC6238BD00BFBC81FF1F2DE9F04782B081468A46164698460B9F10460C99E1
:40088000FFF760FF002854D00446036B06F18045013D03EB850525F00705009651460A9A0D9BFFF76DFF284649464246FFF742FC206007B13C60FFF777FC284BD3F8DC2041
:4008C0000132C3F8DC20D3F8D4304BB9234BC3F8D440D3F8DC30012B10D1FFF779FF0DE01E4BD3F8E0304BB91C4BD3F8D430DB6A0A9A934202D8194BC3F8D440174AD2F84B
:40090000E4300133C2F8E430E36A012505FA03F0D2F8E8100143C2F8E810303203EB830080001044211DFFF7BDFBFFF74FFC2C4601E04FF0FF34012C0CD1084BD3F8E030B3
:4009400043B1064BD3F8D430DB6A0A9A934201D2FFF712FC204602B0BDE8F087BC81FF1F00B585B0002300930193029303930C480C496422FFF77AFF01280DD1FFF708FC41
:40098000094B4FF0FF32DA620122C3F8E0200022C3F8D820FFF764FC05B05DF804FB00BF350C00004C320000BC81FF1F034AD2F8F0300133C2F8F030704700BFBC81FF1F36
:4009C0002DE9F0413E4BD3F8F030002B66D13C4BD3F8D8200132C3F8D820D3F8D880B8F1000F0CD19A6AD3F8D0109962C3F8D020D3F8F4200132C3F8F420FFF783FE304BCA
:400A0000DB6A984503D200273CE0012700E000272B4B9B6A1B680BB9012300E0002323B14FF0FF32264BDA622CE0254B9B6ADB68DC686368984502D2214AD36222E0261D0A
:400A40003046FFF755FBA36A1BB104F11800FFF74FFBE06A01238340194DD5F8E8201343C5F8E83005F1300300EB8000800018443146FFF717FBE26AD5F8D430DB6A9A42D0
:400A8000C3D2C5E70E4AD2F8D430DB6A03EB83039B0013441B6B012B08D808E0084AD2F8F8300133C2F8F830002700E00127044BD3F8FC3003B101273846BDE8F08100BFAC
:400AC000BC81FF1F70B5FFF76FFB304BD3F8F020013AC3F8F020D3F8F030002B4ED12B4BD3F8DC3033BB00244BE0284C236ADD6805F11800FFF7FCFA2E1D3046FFF7F8FA12
:400B0000E86A01238340D4F8E8201343C4F8E83004F1300300EB8000800018443146FFF7C1FAEA6AD4F8D430DB6A9A4202D30122C4F8FC20154B5B69002BD6D1134BD3F8B3
:400B4000F8306BB911E0FFF73BFF18B101220F4BC3F8FC200D4AD2F8F830013BC2F8F8300A4BD3F8F830002BEDD1084BD3F8FC30012B05D1FFF700FB012402E0002400E00B
:400B80000024FFF723FB204670BD00BFBC81FF1F10B5F0B10446FFF709FF104BD3F8D8201444D3F8D4000430FFF7A2FA58B90B4BD3F8D420D16A01228A40D3F8E81021EAAB
:400BC0000202C3F8E8202046FFF72EFEFFF77AFF00E0002008B9FFF7CFFA10BDBC81FF1F38B51FE0FFF7E2FE114BD3F8BC40FFF769FFBCB1FFF7D8FA0D4CD4F8C830DD68B5
:400C0000281DFFF775FAD4F8DC30013BC4F8DC30D4F8EC30013BC4F8EC30FFF7D7FA2846FFF786FD024BD3F8EC30002BDAD138BDBC81FF1F08B5FFF7D3FFFCE7274BD3F885
:400C4000F03023B10122254BC3F8FC20704710B5224B0022C3F8FC20D3F8D4301B6B1A68B2F1A53F0BD15A68B2F1A53F07D19A68B2F1A53F03D1DB68B3F1A53F07D0174B78
:400C8000D3F8D400D3F8D410343100F0F1FB1348D0F8E830B3FA83F3DBB2C3F11F039A00D118890001444C6B64684C631A44920002443832944206D1606803EB8301890051
:400CC000074A0A445060054A03EB83039B0013445B6BDB68C2F8D43010BD00BFBC81FF1FEC81FF1F38B50D46134CD4F8D4101831FFF7E4F9D4F8D4000430FFF7F9F950B987
:400D0000D4F8D420D16A01228A40D4F8E81021EA0202C4F8E820B5F1FF3F06D10648D0F8D4100431FFF7BEF938BD034BD3F8D8002844FFF779FD38BDBC81FF1F38B5C36877
:400D4000DC6804F118052846FFF7D2F9154BD3F8F030ABB9251D2846FFF7CAF9E36A01229A401048D0F8E8100A43C0F8E820303003EB83039B0018442946FFF793F903E0C8
:400D800009482946FFF78EF9E26A064BD3F8D430DB6A9A4204D90120024BC3F8FC0038BD002038BDBC81FF1FD081FF1F034BD3F8F4200260D3F8D83043607047BC81FF1F7C
:400DC00038B504460D46FFF7EFF9124BD3F8D8202B68B3F1FF3F14D020680E49D1F8F410884202D0616891420DD96168501A83420BD98A1A13442B602046FFF7D7FF002490
:400E000004E0002402E0012400E00124FFF7DEF9204638BDBC81FF1F0122024BC3F8FC20704700BFBC81FF1F002850D038B50346C16A274AD2F8D420D26A914246D2826919
:400E4000002A06DB224AD2F8D420D26AC2F1050282615969DA6A02EB820292001D480244914201D1012200E0002252B31D461C1D2046FFF73DF978B9EA6A02EB82039B0021
:400E800013490B441B6B3BB901239340D1F8E82022EA0303C1F8E8300D48D0F8D430DB6AEB6201229A40D0F8E8100A43C0F8E820303003EB83039B0018442146FFF7F2F8D3
:400EC00038BD034AD2F8D420D26ADA6238BD7047BC81FF1FEC81FF1F002837D038B50346426C013A4264C06A196C884230D08ABB1C461D1D2846FFF7FBF878B9E26A02EBD9
:400F000082039B0014490B441B6B3BB901239340D1F8E82022EA0303C1F8E830236CE362C3F10502A261012404FA03F10A48D0F8E8200A43C0F8E820303003EB83039B0079
:400F400018442946FFF7AEF8204638BD00207047002038BD002038BDBC81FF1F064BD3F8D4302BB1044BD3F8D420536C01335364014BD3F8D4007047BC81FF1F094A22F03D
:400F80000702094BC3F838290020C3F83C0947F6F871C3F84419C3F84009516003F5146313607047C482FF1F84F9FF1F70B50446FFF7FCFC264BD3F848392BB9FFF7DEFFBC
:400FC0000122234BC3F8482934B1083414F0070F02D024F007040834621E47F6F6739A422BD81B49D1F8383901F6381101E0194613465A68A24202D21A68002AF7D1154A03
:4010000093421CD00D6808351A680A605A68121B102A0CD91E1972605C6074680E4900E011460A685068A042FAD332600E6059680A4A13685B1A136002E0002500E00025B7
:40104000FFF740FD0DB900F017FA284670BD00BF84F9FF1FC4020020BC0200201081FF1FD0B170B50546A0F10806FFF79FFC55F8044C0A4A00E01A4613685968A142FAD3D0
:4010800045F8083C166055F8041C054A13680B441360FFF717FD70BD704700BFBC0200201081FF1F70B50646134B1D785878002101F044F9012000F025FF45F0FC0001F02C
:4010C00099F905F00F0545F00C04204601F092F944EA0614E4B244F0040001F08BF9012000F010FF04F0FB0001F084F9012000F009FF01F063F970BD1481FF1F38B50546A8
:40110000184B1C785878002101F018F9012000F0F9FE44F0010001F06DF904F0FD0040F0010001F067F9002000F0ECFE04F00D0343F00104204601F05DF944EA0514E4B2FE
:4011400044F0040001F056F9012000F0DBFE04F0F90001F04FF9012000F0D4FE01F02EF938BD00BF1481FF1F08B5012000F0CAFE08BD00BF10B50446FFF7F6FF2009FFF752
:40118000BDFF04F00F00FFF7B9FF10BD38B505460078012404E0FFF7EDFF285D0134E4B20028F8D138BD00BF08B5FFF7E3FF08BD10B50446FFF7D8FF2009FFF773FF04F0AA
:4011C0000F00FFF76FFF10BD08B5282000F084FE0320FFF767FF052000F07EFE0320FFF761FF0F2000F078FE0320FFF75BFF012000F072FE0220FFF755FF052000F06CFE3B
:401200000620FFF7D5FF0E20FFF7D2FF2C20FFF7CFFF0820FFF7CCFF0120FFF7C9FF0C20FFF7C6FF0320FFF7C3FF052000F054FE08BD00BF08B50C20FFF7BAFF0122014B3D
:401240001A7008BDD002002008B5054B5B7823B9FFF7BAFF0122024B5A70FFF7EBFF08BDD002002008B5032819D8DFE800F002070D1381F08000FFF79BFF08BDA1F1400020
:40128000C0B2FFF795FF08BDA1F16C00C0B2FFF78FFF08BDA1F12C00C0B2FFF789FF08BD08B501F0E9FA024B187000F055FE08BDE402002000B583B0002001F031FB01F0B7
:4012C00039F9224B1868FFF713FA00283AD01F4B18680DF1070100221346FFF789F99DF80730032B2BD8DFE803F0020C2327012001F016FB6420FFF74BFC002001F010FBA8
:401300001DE0012001F00CFB4FF4C870FFF740FC002001F005FB6420FFF73AFC012001F0FFFA6420FFF734FC002001F0F9FA06E0022001F0F5FA02E0002001F0F1FA042383
:401340008DF807300120FFF723FCBAE74003002008B5012000F0D2FC002001F0B1F908BD00B583B0002000F0C9FC01F0B1F902A941F8040D054B186800221346FFF700F9D4
:40138000002001F09DF903B05DF804FB4403002000B583B004238DF8073001F0F5F9274801F042FA264801F017FA002001F088F9244B1868FFF79CF900283AD0214B186838
:4013C000694600221346FFF713F9009AA2F5C333A13B1D498B420BD89DF80730032B03D102238DF807301CE003238DF8073018E0A2F5C323A3F2812313498B4203D8012345
:401400008DF807300DE0A2F52A22A2F661620E4B9A4203D800238DF8073002E004238DF807300A4B18680DF1070100221346FFF719F80120FFF7ACFBBAE700BF5113000032
:4014400061130000440300203E0D0300EC020020034B044ADA62044A9A63044ADA6370470080FF1F55010000E50100002902000008B5FEF78DFEFEE708B5FEF789FEFEE78B
:4014800000B585B0FFF7E4FF62B6324801F07AFA01F038FA0320002100F03EFD00F0D4FDFFF7D2FE0120FFF749F82B4B1860642000F012FD00200146FFF7D4FE2748FFF7FC
:4014C00065FE01200021FFF7CDFE2548FFF75EFE4FF47A7000F000FD0125009500240194029403941F4820494FF400722346FFF7BDF9032300930194029403941B481C492F
:401500004FF480622346FFF7B1F902230093019402940394174818494FF480622346FFF7A5F9042029462246FEF780FF134B1860042029462246FEF779FF114B186004207C
:4015400001462246FEF772FF0E4B1860FFF708FAFEE700BFA1120000E8020020C4320000D4320000B5120000E432000091130000EC32000061170000F03200004003002094
:40158000EC02002044030020F0B591B00446164D01AF05F1300E3E4628686968AA68EB680FC6103537467545F5D128686968AA6807C70023184612E004EB840252001A4405
:4015C0000A498A5C012A08D104EB8402520010A90A441A4412F83C2C10440133DBB2092BEAD911B0F0BD00BF543200000403002038B50446052829D8DFE800F00308280DCE
:401600001924FFF7C1FF124B188038BDFFF7BCFF0F4B588038BD0138C0B2FFF7B5FF05462046FFF7B1FF2844094B988038BD084B1B880F2B0AD02D2B08D0FFF7A5FF044B59
:40164000D88038BDFFF7A0FF014B188138BD00BFF002002030B48EB001AC174D0FCD0FC40FCD0FC40FCD0FC42B682360134BDB8813F0030F01D0002400E001240022012371
:4016800014E0022B01D104B101320EA901EB830151F8341C0A4409488088904205DC074C63818A1A0244A28102E001330C2BE8DD0EB030BC704700BF90320000F0020020EB
:4016C00000B589B004283ED8DFE800F003113D1F300001200E21FFF7C5FD68461B491C4B1A8801F0A7F96846FFF750FD2BE001200B21FFF7B7FD68461649154B5A8801F07C
:4017000099F96846FFF742FD1DE0FFF7A3FF01200521FFF7A7FD0E4B68460F495A899B8901F088F96846FFF731FD0CE001200021FFF798FD68460949054BDA8801F07AF945
:401740006846FFF723FD09B05DF804FBF8320000F0020020003300000833000014330000F0B58BB004238DF827300120FFF720FD834B00271F805F809F80DF801F815F811F
:401780009F813D463C463E467E4B1868FEF7B0FF002800F0F0807B4B18680DF1270100221346FEF725FF01F0C7F8002863D00135EDB26B1E172BE7D801A252F823F000BFE2
:4017C0002118000089170000891700003B1800008917000089170000891700003B180000891700008917000089170000471800005318000089170000891700003B180000AD
:401800008917000089170000891700003B1800008917000089170000891700005F18000000200146FFF71EFD5748FFF7AFFC211D0020C9B2FFF716FDA6E74A20FFF7B4FCE7
:401840000134E4B2A0E75920FFF7AEFC0134E4B29AE72020FFF7A8FC0134E4B294E75920FFF7A2FC2020FFF79FFC0234E4B2002001F05CF888E79DF82730022B03D1002501
:401880002C462E46012784B900200146FFF7EAFC47B101A83D49324601F0CCF801A8FFF775FC02E03A48FFF771FC211D0020C9B2FFF7D8FC9DF82730022B03D14D20FFF77C
:4018C00073FC16E0032B03D15020FFF76DFC10E01BB93020FFF768FC0BE0012B03D13120FFF762FC05E0042B03D13F20FFF75CFC00279DF8272006EB86035B002344254972
:40190000CA540134E4B2022A12D11D4B1B883B2B03D101238DF8263002E000238DF826301D4B18680DF1260100221346FEF79AFD9DF82730032B1ED12FB13046FFF758FECC
:401940003046FFF7BDFE0E4B1B880F2B01D02D2B05D1032E03D1012000F0E8FF02E0002000F0E4FF0136F6B2052E01D8002402E00024264627460120FFF70AF904E700BF87
:40198000F0020020EC0200201C33000030330000443300000403002040030020FEE700BF08B5094B1A681044084BC31AB3F5006F02DC054B186005E000F0FCFF0C2303607A
:4019C0004FF0FF32104608BD1881FF1F6803002008B5104E104D16E029686B68AC68002204E051F8040B43F8040B0432A242F8D1E868002203E0002143F8041B04328242DF
:401A0000F9D11035013E002EE6D100F0D9FFFFF737FDFEE701000000B834000008B5134A134B1A60134A136843F40073136000230AE0032B03D8104A52F8231000E00F49A3
:401A40000F4A42F8231001332F2BF2D90D4B1A780D4B1A700A4A0D4B1A6000F0D1F800F06BF900220A4B1A6008BD00BF0004FA050CED00E014ED00E0000000009D19000060
:401A80000080FF1FBC7600400481FF1F08ED00E00081FF1FFEE700BFF0B40022174611E050F82760F3B226F0FF0608E001EB420511F812406D78A5550132013BDBB2002B3C
:401AC000F4D101371B2FEBD9F0BC70470A4B1B78DBB203F00701094A11701B09013213700122074B1A70102203F683131A704422A3F21A231A707047CF0100496E58004078
:401B00000D51004038B500242D4B1C80192502331D70412202331A8018232A4A13704FF44E7102321180023213704FF6FF7102321180023213700622234B1A7008224FF046
:401B400040231A70522203F500731A701F4B1B78DBB21F4A137040F621321E4B1A8041F25122023B1A800CE01B4B1B7803F0010343EA440404F003044FF4F07000F0CCF8ED
:401B8000013D0DB1032CEFD115B90320FFF782FF124A4FF48073138007231370002310490B7048200231087013700532137002220C4B1A700C4A137843F00F03137038BD16
:401BC0008040004086400040004300400F010049A14600402242004025420040044000400640004001400040A243004008B50A46002100F016FF08BD08B500F007FF08BD71
:401C000010B572B62D4C61232370FFF77BFF012323702B4A137843F00403137000240CE0284963001A1952000A4423445B00C8589188FFF7DBFF0134E4B2092CF0D94FF0B9
:401C400090402149FFF728FF20480421FFF7CEFF1F480421FFF7CAFF1E4A137843F0020313701032137843F0020313701A4C237843F040032370A2F58632513A137843F09A
:401C800010031370154816490822FFF7B5FF154815490822FFF7B0FF144815490822FFF7ABFF144A137843F008031370FFF70EFF114821460E22FFF79FFF10BD004800406A
:401CC000E84600405833000070000048007600400876004003500140A043004002510040A0020048C2510040A802004822510040B002004822430040B0430040044A1378E8
:401D000003F0FD03400000F0020018431070704720510040000000000230800803D000BF01380046FCD17047EFF3108072B6704780F31088704700BF0B4A7F2313708021FF
:401D4000517007E0DA0002F1804202F5F042013BDBB21370002BF5D1DB0003F1804303F5F04300221A7070471C81FF1F172815D831B103010A495A5C42F020025A5405E0E9
:401D8000030107495A5C02F0DF025A540001044A835C43F00103835400207047012070471070004017280BD80001064A835C03F0F10301F0070143EA4101815400207047A0
:401DC000012070471070004041F6FF73994201D14FF4005141F6FF739A4201D14FF40052172808D8C00000F1804000F5EC408180C280002070470120704700BF172805D8F7
:401E0000034B03EB0010417200207047012070471070004017281BD810B4C00000F1804404F5EC44D201D2B201F07F01114321709DF804201201D2B203F00F031343637075
:401E40009DF8083003F00F03A3700020E07001E0012070475DF8044B704700BF10B5FFF763FF0A4B5B78182B0BD9084A1478013B5370E30003F1804303F5F0431B78137016
:401E800000E0FF24FFF754FF204610BD1C81FF1F10F0800F0CD111F4704F0BD1C00000F1804000F5F04001808270C37000207047012070470120704710F0800F08D1C000F1
:401EC00000F1804000F5F0408180C280002070470120704701BE704710B5044605E0084B1868FFF719FFA4F50044B4F5004FF6D8034B586800FB04F0FFF70EFF10BD00BFA0
:401F00002481FF1F08B5034B1B7A03FB00F0FFF703FF08BD2481FF1F0E4B1A7802F0FC0200F00300104318701A7842F080021A701A7802F07F021A7049011A7801F060019A
:401F400002F09F02114319701A7842F010021A70704700BF834300400122014B1A7070478443004070B504460E46074B1D681F2802D90020FFF7AEFF04F01F04103455F837
:401F8000240045F8246070BD08ED00E038B504460D46072902D90020FFF79CFF1F2C02D90020FFF797FF04F01F0000F1604000F564406D01EDB2057038BD00BF10B50222C6
:401FC000114B1A7081220E3B1A70082202331A702A2211331A70002401331C704FF400420A4B1A600F200721FFF7D0FF0F200849FFF7B8FF1022074B1A70074B1C70074BC3
:402000001C70074B1C7010BDD649004080E100E071200000480300204E030020500300204C03002008B5FFF77FFE064A137843F0040313701032137843F004031370FFF732
:4020400077FE08BDA543004008B5074B1B7823B9FFF7B4FF0122044B1A70FFF7E3FF4FF40042024B1A6008BDD202002000E100E038B5A44B1C78E4B2A34B1B7813F0400F64
:4020800000F0378114F0010F00F01B819E4B1B78453B052B00F21281DFE813F006008200100110010600DE0004F0DF0504F00A04082C42D1944B1B78DBB2452B35D1934B5B
:4020C0001B7813F0FF0F10D0914B1B681B78DBB2904A137004228B4B1A7001228E4B1A704622894B1A702C46EBE08C4B1B7813F0020F0DD08A4A137843F00A031370602272
:40210000814B1A704FF40042864B1A602C46D8E0854A137843F0100313701022834B1A700422023B1A702C46CBE00022754B1A704A22754B1A702C46C3E00A2C2BD1784A6D
:40214000137843F0A0031370744B1B7813F0020F14D06D4B1B7813F0080F01D0092300E00A236F4A11780B4313706022664B1A704FF400426B4B1A602C46A2E06A4A13780A
:4021800043F0100313701022684B1A700422023B1A702C4695E00020FFF79CFE2C4690E014F0020F35D15C4B1B78584A1278DBB2934210D2584A1378DBB255490968CB5CCC
:4021C000DBB254490B7004214E4B197013780133DBB2137075E0514B1B7813F0020F0CD04F4A137843F00A0313706022464B1A704FF400424B4B1A6063E04B4A137843F001
:40220000100313701022494B1A700422023B1A7057E0424B1B7813F0020F0CD0404A137843F09A0313706022374B1A704FF400423C4B1A6045E03C4A137843F01003137009
:4022400010223A4B1A700422023B1A70344A137843F09003137034E0354A1378DBB2354908682C490978C9B2C15413780133DBB213701378304A1278DBB2934203D21022F8
:40228000204B1A701DE0254B1B7813F0020F0CD0234A137843F00903137060221A4B1A704FF400421F4B1A600BE01F4A137843F0100313700022134B1A7002E00020FFF7FB
:4022C00009FE14F0200F1CD00F4B1B7813F0080F01D0012300E00223114A11780B431370114A137803F0EF0313701022064B1A7038BD054B1B7813F0100F02D11022024B5B
:402300001A7038BDD7490040480300204F03002054030020D84900404C0300204D0300204E03002080E100E0D6490040D949004050030020580300205C0300201A4B1B7852
:40234000DBB2102B29D1194B1B7813F0080F26D14FF40042164B1A604000C0B229B140F001004922104B1A7002E045220E4B1A70104B1870012201331A700F4B1B7813F046
:40238000010FFAD00C4B1B7803F00A030A2B08D11022054B1A700320704702207047012070470020704700BF48030020D949004080E100E0D8490040D74900400A4B1B7867
:4023C00013F0040F0ED01023074A13700421023A1170064A1370064B1B7813F0210FFAD00020704702207047D949004048030020D7490040114B1B7813F0040F1BD0104B24
:4024000018700422013B1A7046220E4B1A700E4B1B7813F0010FFAD00B4B1B7813F0020F04D16022074B1A70002070476022054B1A70032070470220704700BFD9490040DD
:40244000D849004048030020D749004010B500F0C9F8074C20780121FFF788FC60780121FFF784FC002000F0D9F800F071F810BDD302002070B505460E46012001462A0C65
:402480004FF4804300F072F8094C2070A278104631460123FFF7FCFCA078A9B245F68232FFF70AFD2078A178FFF7A8FC70BD00BFD302002070B505460E46012001462A0CF1
:4024C0004FF4804300F070F8094C6070E278104631460123FFF7DCFCE078A9B245F68232FFF7EAFC6078E178FFF788FC70BD00BFD302002010B500F0B9F8022000F080F846
:40250000002000F0A3F8FFF7A9FC084CA070FFF7A5FCE070064C20466421FFF7ABFF04F164006421FFF7C6FF10BD00BFD30200209433000008B5054B1B7923B9FFF7DAFF00
:402540000122024B1A71FFF781FF08BDD3020020054A137843F0040313701032137843F004031370704700BFA2430040F0B583B086460F4616461D460A4C0023237000931D
:402580000193184671463A46FFF744FC207831462A46FFF719FC20780221FFF703FC207803B0F0BD3481FF1FF0B583B086460F4616461D460A4C01202070002300930193AE
:4025C00071463A46FFF726FC207831462A46FFF7FBFB20780221FFF7E5FB207803B0F0BD3581FF1F054A137843F0040313701032137843F004031370704700BFA843004002
:40260000054B1A7802F0FD021A701A7800F0020010431870704700BF28580040014B1870704700BF825B0040064B1B78C3F3810303F19243063393F82831DBB2024A1370E1
:40264000704700BF285800400A46004008B5064B1A7802F0F3021A701A7800F00C0010431870FFF7E1FF08BD2858004008B50020074B187001331870064A137843F0080333
:402680001370FFF7E3FF0220FFF7BAFF08BD00BF28580040975A0040024A137843F08003137070477F640040014B1870704700BF8E640040014B1878704700BF6E640040AF
:4026C00008B50146014800F06BF908BD0C640040034B1B78034B186820F07F40704700BF0C6400404C640040024B186820F07F40704700BF4C64004008B50146014800F0F1
:402700004FF908BD2C64004008B50146014800F047F908BD3C64004008B501E0FFF7E4FFFFF7C8FF10F0400FF8D108BD08B5124A137803F0F80343F004031370137803F0BC
:40274000FC031370FFF7E8FF0C48FFF7D5FF0020FFF7B6FF0C20FFF7A7FFFFF7ABFF0848FFF7D2FFFFF7E0FA064A137843F010031370FFF7DDFA08BD7F64004040420F00D8
:40278000DC410F009E64004008B5054B1B7823B9FFF7CCFF0122024B1A70FFF77DFF08BDD8020020014B1B685864704708ED00E04001C0B2014B1870704700BF01E400E06A
:4027C0000222014B1A60704700E100E00222014B1A60704780E100E010B50446FFF7F6FF2046FFF7DFFF0720FFF7E2FFFFF7E8FF10BD00BF014B1B681864704708ED00E023
:402800004001C0B2014B1870704700BF00E400E00122014B1A60704700E100E00122014B1A60704780E100E010B50446FFF7F6FF2046FFF7DFFF0720FFF7E2FFFFF7E8FF86
:4028400010BD00BF084A137843F0010313701032137843F00103137002F64D32137843F001031370704700BFA3430040014B1870704700BF034F0040014B1878704700BF28
:40288000034F0040014B1880704700BF044F0040014B1880704700BF064F004008B5164A137803F0010313700232137803F0FC031370124B1A7802F0CF021A701A7842F054
:4028C00030021A701A7802F0F0021A701A7842F00F021A700A4A137843F00103137040F2E730FFF7CFFF40F2E730FFF7D1FF0820FFF7BCFF08BD00BF004F00400B4F004082
:40290000014F004008B5054B1B7823B9FFF7C6FF0122024B1A70FFF795FF08BDD9020020014B1870704700BF7C640040014B1870704700BF7D640040014B1878704700BF65
:402940007D640040024B1B68C3F88400704700BF08ED00E04001C0B2014B1870704700BF11E400E04FF40032014B1A60704700BF00E100E04FF40032014B1A60704700BFE7
:4029800080E100E010B50446FFF7F4FF2046FFF7D9FF0720FFF7DEFFFFF7E4FF10BD00BFCBB20370C1F307234370C1F307418170704700BF014B1868704700BF9881FF1FEE
:4029C0000E4B70B51E460E4C0025E41AA410A54204D056F8253098470135F8E700F05AFD084B094C1E46E41AA4100025A54204D056F8253098470135F8E770BDA0340000F5
:402A0000A0340000A0340000A834000010B5431E0A44914204D011F8014B03F8014FF8E710BD03460244934202D003F8011BFAE7704700000EB400B54FF402719CB0ADF8A8
:402A400014106FF00041049107914FF6FF711DABADF81610084953F8042B02900690086802A9019300F064F8029B00221A701CB05DF804EB03B070479881FF1F2DE9F047E8
:402A80008E688246B3420C469046994640D38A8912F4906F3AD02568096902236F1A656905EB450595FBF3F57B1C4B449D4238BF1D4653050FD5294600F030FB064698B140
:402AC00021693A46FFF7A2FFA38923F4906343F08003A38113E02A4600F076FB064670B95046216900F0D6FA0C23CAF80030A3894FF0FF3043F04003A381BDE8F087266114
:402B00003E4426604E466561ED1BA560B14500D24E4632462068414600F0A0FAA36800209B1BA36023681E442660BDE8F08700002DE9F0439DB003938B8906461C060D4645
:402B400090460CD50B6953B9402100F0E7FA2860286110B90C233360CCE040236B610023099320238DF8293030238DF82A3043461C4613F8012B1AB9B4EB08090FD002E0FD
:402B8000252AF5D1F8E73046294642464B46FFF775FF013000F0A980099B4B4409932378002B00F0A28000234FF0FF3204930793059206938DF853301A9304F10108444697
:402BC000DFF8489121784846052200F039FA08F10108049B30B1C9EB00000122824013430493ECE7D80644BF20228DF85320190744BF2B228DF8532022782A2A02D00799F6
:402C000023460EE0039A0134111D12680391002ABBBF524243F0020307920792B8BF04930AE01C4622780133303A092A03D80A2000FB0121F5E7079123782E2B1AD1637878
:402C40002A2B0AD1039B02341A1D1B680392002BB8BF4FF0FF3305930CE0611C00220C4623780131303B092B03D80A2000FB0232F5E70592DFF8988021784046032200F043
:402C8000DFF938B1049AC8EB00004023834013430493013421781A48062204F101088DF8281000F0CDF988B1164B33B9039B073323F007030833039313E003AB0093304630
:402CC00004A92A46104BAFF3008007E003AB0093304604A92A460C4B00F092F8421C074603D0099B3B44099341E7AB895B0601D4099801E04FF0FF301DB0BDE8F08300BF4B
:402D000068340000000000007D2A00005E340000643400002DE9F84391461F468A680B6906469342B8BF1346C9F8003091F843200C46DDF8208012B10133C9F8003023682B
:402D4000990642BFD9F800300233C9F80030256815F006051CD094F843302268003318BF012392061FD5E118302081F843005A1C94F845102244023382F8431013E0304693
:402D8000394604F119020123C047013007D00135E368D9F800209B1A9D42F0DBDBE74FF0FF30BDE8F8833046394604F14302C0470130F4D02268D9F80050E36802F0060215
:402DC000042A08BF5D1B2269A3680CBF25EAE57500259342C4BF9B1AED184FF00009A9450ADA3046394604F11A020123C0470130D5D009F10109F2E70020BDE8F883000027
:402E00002DE9FF410C461746227E98466E2A06460A9B01F1430100F0B08012D8632A23D00AD8002A00F0BD80582A40F0CC8084F84520DFF804E257E0642A1ED0692A1CD0BF
:402E4000C1E0732A00F0B18009D86F2A2ED0702A40F0B980226842F0200222603FE0752A24D0782A3BD0AEE01A6804F14205111D1960136884F84230A9E020681A6810F0CA
:402E8000800F02D0101D186008E010F0400F02F10400186002D0B2F9003000E01368002B3EDA2D225B4284F8432039E020681A6810F0800F02D0101D186007E010F0400FF1
:402EC00002F10400186001D0138800E01368227EDFF864E16F2A0CBF08220A221CE07822DFF858E184F845202268186812F0800F00F104051D6003D1550601D5038800E01D
:402F00000368D00744BF42F0200222601BB9226822F0200222601022002084F8430002E0DFF814E10A226568002DA8BF2068A560A4BF20F00400206003B965B10D46B3FBBF
:402F4000F2F002FB10331EF8033005F8013D03460028F4D100E00D46082A0BD12368DA0708D5236962689A42DEBF302305F8013C05F1FF35491B21612EE025681A6815F05D
:402F8000800F606903D0151D1D60136808E015F0400F02F104051D60136801D0188000E01860002323610D4616E01A68111D1960156800212846626800F042F808B1401B9E
:402FC0006060636804E004F1420584F8422001232361002384F84330CDF800803046214603AA3B46FFF796FE013002D14FF0FF301FE0304639462A462369C0470130F5D055
:4030000023689B0705D4E068039B9842B8BF18460FE00025E368039A9B1A9D42F3DA3046394604F119020123C0470130DED00135F0E704B0BDE8F0816F340000803400005B
:4030400010B5C9B202449042034605D01C7801308C42F8D1184610BD002010BD814210B501EB020301D3421E0BE09842FBD28118D21AD34204D013F8014D01F8014DF8E73A
:4030800010BD994204D011F8014B02F8014FF8E710BD000030B500293CD051F8042C0B1F1D49002AB8BF9B180A680C4612B95A600B6030BD93420DD219685818904201BFFA
:4030C0005A5852181A60426823605A6030BD994203D80A4651680029F9D1146815199D420AD11B682344D0188842136012D10868034413604B680CE002D90C23036030BD3B
:403100001C681819884201BF08684968001918605960536030BD00BFE002002070B5CC1C24F0030408340C2C38BF0C24002C064603DA0C233360002070BD8C42F9D3204A59
:40314000136810461946A1B10A68121B0ED40B2A03D90A608B188C501FE08B420BBF5A684A6802605A6018BF0B4616E00B464968E9E7144D2B681BB9304600F04BF8286043
:403180003046214600F046F8421C0346D1D0C51C25F0030585420AD11C6003F10B001A1D20F00700821A0AD05142995070BD3046E91A00F02FF80130BBD02B46ECE770BD77
:4031C000E0020020DC020020F8B5074615460E4621B91146BDE8F840FFF7A0BF1AB9FFF759FF2846F8BD00F025F8A8420ED238462946FFF793FF044650B131462A46FFF70B
:4032000005FC38463146FFF745FF01E03046F8BD2046F8BD38B5064C0023054608462360FEF7BEFB431C02D1236803B12B6038BD6003002051F8040C0028BEBF091851F82F
:40324000043CC018043870470000000049444C45000000000028140A0008040201000000140A0008040201000000C864005028140A00080402010000000000000050281446
:403280000A080402010004020100000000000000000000001F0000001C0000001F0000001E0000001F0000001E0000001F0000001F0000001E0000001F0000001E000000A0
:4032C0001F0000004A4A592052656365697665720000000067657474696E67207374617274656400544F4E45000000004A4A5900434C434400000000253032640000000040
:40330000253032643A000000253032642F253032642000003230253032642F0028342920202020202020202020202020000000002825642920202020202020202020202048
:40334000200000002878292020202020202020202020202000000000C84900401900004F00400C00105100401000305100404000F0510040100000000140001000140140D6
:40338000000800400140000A004C0140000200500140200080808080808080808080808080808080808080808080808080808080808080808080808080808080808080803A
:4033C000808080808080808080808080808080808080808080808080808080808080808080808080808080808080808080808080808080808080808080878F979FA6AEB5F8
:40340000BCC2C9CFD5DBE0E5E9EDF1F4F6F9FAFCFCFCFCFCFAF9F6F4F1EDE9E5E0DBD5CFC9C2BCB5AEA69F978F87807870686059514A433D36302A241F1A16120E0B09060C
:403440000503030303030506090B0E12161A1F242A30363D434A5159606870784300232D302B2000686C4C00656667454647003031323334353637383941424344454600FE
:403480003031323334353637383961626364656600000000F8B500BFF8BC08BC9E4670474D0000001D1A0000F8B500BFF8BC08BC9E46704729000000C83400000881FF1F5C
:4034C00098000000C881000000000000AAAAAAAAF87F000008270000680300207F800000030000000000E880D0010100420000008014EF03FFFF0000000000000000000010
:403500000000000000000000000000000000000000000000000000005C340000000000000000000000000000000000000000000000000000000000000000000000000000FB
:403540000000000000000000000000000000000000000000000000003881FF1F00000000000000000000000000000000000000000000000000000000000000000000000074
:40358000000000000000000000000000000000000000000000000000000000000000000000000000000000000000000000000000000000000000000000000000000000000B
:4035C00000000000000000000000000000000000000000000000000000000000000000000000000000000000000000000000000000000000000000000000000000000000CB
:40360000000000000000000000000000000000000000000000000000000000000000000000000000000000000000000000000000000000000000000000000000000000008A
:40364000000000000000000000000000000000000000000000000000000000000000000000000000000000000000000000000000000000000000000000000000000000004A
:020000040003F7
:0200000480007A
:40000000024F004001520040015A004001640040010101400203014002090140040B01403E0C01401C0D0140360E0140240F0140051501400117014003190140051B0140D7
:400040000840014007410140054201400143014003450140034601400648014014490140074C0140074D0140025001400351014001300A4B600297018E67E208E209EE0692
:4000800095209740851095209740E0024014410349FF4AFF4BFF4DA04F0150185A045B045F016040628064406540668068406A506BA86C406D206E506FA8830185088704AC
:4000C0008B0C8D018F0295109702B104B310B503B708BF45C015C103C9FFCAFFCBFFCDAFCE07CF01D018D904DA04DB04DC20DF01E040E280E440E540E680E840EA50EBA880
:40010000EC40ED20EE50EFA82004210422813208380639604188458846404B8069406C018108860893809508960297409A40A188A680AA80AE01CC02CE0FD0DAD208E20866
:4001400002040F0110012403290130023301340436013E403F0440154103452546C0470E481F49FF4AFF4BFF4DAF4E074F0150185407580459045A045B045F016040628015
:4001800064406540668068406A506BA86C406D206E506FA890019E03AE01B002B601B808BE44D280D608D804DB04DF0102400A400E800F011020178019601A401D881E80AF
:4001C000220429203B804188482049024B805254534059505A085F4062146701778085048D12C008C298C484CA04CE08D00AD208D61ED816E008E401EA05EC02EE08E00288
:40020000851095209740AF40E008E401EA05EE083120358039043C408580CC30CE60E21080018520A520A840AD04E290EE603E1060019001CE20D64096100B808740C208D2
:4002400030208420CC082340272087209610C8C0E0401220164075027B02822086409902A302AA10AB02AD02AF40C430DC80DE20E010E480EAA0EC40EE1011081320142018
:400280007B107F40C40EDE03831087409780A710A904AB20AC2000050E05000F03C0100A0000000000000100000003000300000010020200000000000000000000000000B6
:4002C00000000000000000000000000000000000000000000000000000000000000000000000000000000000000000000000000000000000000000000000000000000000FE
:4003000000000000000000000000000000000000000000000000000000000000000000000000000000000000000000000000000000000000000000000000000000000000BD
:40034000000000000000000000000000000000000000000000000000000000000000000000000000000000000000000000000000000000000000000000000000000000007D
:40038000000000000000000000000000000000000000000000000000000000000000000000000000000000000000000000000000000000000000000000000000000000003D
:0200000490006A
:0400000000004005B7
:0200000490105A
:04000000BC90ACAF55
:0200000490303A
:02000000FB9073
:0200000490402A
:4000000000000000000000000000000000000000000000000000000000000000000000000000000000000000000000000000000000000000000000000000000000000000C0
:400040000000000000000000000000000000000000000000000000000000000000000000000000000000000000000000000000000000000000000000000000000000000080
:400080000000000000000000000000000000000000000000000000000000000000000000000000000000000000000000000000000000000000000000000000000000000040
:4000C0000000000000000000000000000000000000000000000000000000000000000000000000000000000000000000000000000000000000000000000000000000000000
:0200000490501A
:0C00000000012E16106900012E2C0BF9D7
:00000001FF