:400000000080002011000000311700003117000008B5044B1A6803F53F5302331A6001F0A1FB00BFFA46004010B5054C237833B9044B13B10448AFF300800123237010BD4A
:40004000B081FF1F0000000034320000084B10B51BB108480849AFF300800848036803B910BD074B002BFBD0BDE81040184700BF0000000034320000B481FF1F0881FF1F25
:400080000000000000F1080343604FF0FF328260C360036100230360704700BF00230361704700BF43684B609A688A609A68516099600861036801330360704730B40D6866
:4000C000B5F1FF3F01D1026907E000F1080200E01A4653681C68AC42FAD953684B6099608A605160086103680133036030BC704703694268816891608268416851605A68BF
:40010000824201D182685A6000220261186801381860704706480068006880F3088862B661B6BFF34F8FBFF36F8F00DF00BF000008ED00E04FF0807340F8043C40F8081C0F
:40014000034B40F80C3C40F8202C4038704700BFA1010000074B19680868B0E8F00F80F30988BFF36F8F4FF0000080F311884EF00D0E7047A082FF1F4FF08052034B1A609B
:40018000BFF34F8FBFF36F8F704700BF04ED00E0EFF311804FF0A00181F311887047002008B5FFF7F5FFFEE708B5FFF7F1FF044A136801331360BFF34F8FBFF36F8F08BDDD
:4001C0000C81FF1F80F31188704700BF08B5044A1368013B136013B90020FFF7F3FF08BD0C81FF1FEFF30980BFF36F8F0D4B1A6820E9F00F10602DE908404FF0A00080F33C
:40020000118800F0E3FC4FF0000080F31188BDE8084019680868B0E8F00F80F30988BFF36F8F7047A082FF1F08B5FFF7B1FF00F08FFB18B14FF08052024B1A600020FFF757
:40024000C1FF08BD04ED00E0034A044B1A600722043B1A60704700BFCF01010014E000E008B5094B1A6842F460021A601A6842F060421A60FFF7E8FF0022044B1A60FFF7E2
:4002800049FFFFF78DFF00BF20ED00E00C81FF1F10B50446FFF788FFA26BE36B9A4201D1012400E00024FFF791FF204610BD00BF10B50446FFF778FFA36B0BB9012400E094
:4002C0000024FFF783FF204610BD00BF38B504461546026C3AB903685BBB406800F0C4FD002363602CE06DB9806802F07DFBA268236C1344A360626893421CD32368A3602A
:4003000000201DE0C06802F06FFB236C5B42E2681A44E26021688A4202D262681344E360022D0AD1A36B53B1A36B013BA363002006E0002004E0002002E0002000E00020E1
:40034000A36B0133A36338BD026C72B110B5C3681344C3604468A34201D30368C36003460846D96802F040FB10BD704710B50446FFF71AFF0BE0636A63B104F1240000F0D6
:40038000A5FC08B100F010FDA36C013BA364A36C002BF0DC4FF0FF33A364FFF717FFFFF703FF0BE0236963B104F1100000F08EFC08B100F0F9FC636C013B6364636C002B9E
:4003C000F0DC4FF0FF336364FFF700FF10BD00BF38B504460D46FFF7E7FE2168E26B236C03FB021060600020A063A160013A02FB0313E3604FF0FF336364A36455B9236950
:4004000083B104F1100000F061FC01280AD1FFF7B3FE07E004F11000FFF734FE04F12400FFF730FEFFF7D2FE012038BD70B506460D4619B101FB00F0013000E000204C3037
:4004400000F07CFD044658B10DB9206002E000F14C030360E663256420460121FFF7B8FF204670BDF0B585B004460F4601921E460025FFF799FEA26BE36B9A4201D3022EFE
:4004800016D1204639463246FFF720FF636A43B104F1240000F01AFC012805D1FFF76CFE02E008B1FFF768FEFFF790FE012042E0019B1BB9FFF78AFE00203CE01DB902A83C
:4004C00000F03CFC0125FFF781FE00F037FAFFF76BFE636CB3F1FF3F01D100236364A36CB3F1FF3F01D10023A364FFF76FFE02A801A900F02DFCC0B92046FFF7C9FE70B1D2
:4005000004F11000019900F0B5FB2046FFF72EFF00F0A0FA0028ACD1FFF72EFEA9E72046FFF724FF00F096FAA3E72046FFF71EFF00F090FA002005B0F0BD00BF38B54C20FC
:4005400000F0FCFC0446C8B10025456005608560C56085630123C36305644FF0FF33436483641030FFF78EFD04F12400FFF78AFD204629462A462B46FFF774FF204638BD2C
:40058000F0B585B004460F4601921E460025FFF70BFEA36B33B3E56820463946FFF7D4FE96B9A36B013BA363236813B900F09EFC6060236993B104F1100000F087FB012809
:4005C0000CD1FFF7D9FD09E0E560636A33B104F1240000F07BFB08B1FFF7CEFDFFF7F6FD01204BE0019B1BB9FFF7F0FD002045E01DB902A800F0A2FB0125FFF7E7FD00F0B0
:400600009DF9FFF7D1FD636CB3F1FF3F01D100236364A36CB3F1FF3F01D10023A364FFF7D5FD02A801A900F093FB08BB2046FFF73FFEB8B1236833B9FFF7B6FD606800F0CF
:40064000BBFBFFF7C3FD04F12400019900F012FB2046FFF78BFE00F0FDF9002897D1FFF78BFD94E72046FFF781FE00F0F3F98EE72046FFF77BFE00F0EDF9002005B0F0BDB1
:4006800010B50446FFF790FDA46BFFF79FFD204610BD00BF094B9B6A1B680BB9012300E0002323B14FF0FF32044BDA627047034B9A6AD268D2685268DA627047CC81FF1FEA
:4006C00010B50446006B00F093FC204600F090FC10BD00BF70B506460C4619B9800000F02DFC044654B1502000F028FC054608B1046304E0204600F07BFC00E0002525B19B
:40070000286BA521B20002F07AF9284670BD00BF70B504461546002306E0C85CE21882F83400CA5C12B101330B2BF6D9002384F83F30042D00D90425E5622564002666642D
:40074000201DFFF7ABFC04F11800FFF7A7FC2461C5F10505A5616462A66484F84C6070BD70B5002407E004EB84039B0010481844FFF788FC0134042CF5D90E4C04F19406FE
:400780003046FFF77FFC04F1A8052846FFF77AFC04F11400FFF776FC04F1BC00FFF772FC2046FFF76FFCA662C4F8D05070BD00BFFC81FF1FCC81FF1F38B504460E4BD3F858
:4007C000D4205060D3F8D830984208D20A4BD3F8D000D3F8D4100431FFF770FC38BD064DA86AD5F8D4100431FFF768FCEB6A9C4200D2EC6238BD00BFCC81FF1F2DE9F0473F
:4008000082B081468A46164698460B9F10460C99FFF760FF002854D00446036B06F18045013D03EB850525F00705009651460A9A0D9BFFF76DFF284649464246FFF77AFC58
:40084000206007B13C60FFF7AFFC284BD3F8DC200132C3F8DC20D3F8D4304BB9234BC3F8D440D3F8DC30012B10D1FFF779FF0DE01E4BD3F8E0304BB91C4BD3F8D430DB6ACD
:400880000A9A934202D8194BC3F8D440174AD2F8E4300133C2F8E430E36A012505FA03F0D2F8E8100143C2F8E810303203EB830080001044211DFFF7F5FBFFF787FC2C469E
:4008C00001E04FF0FF34012C0CD1084BD3F8E03043B1064BD3F8D430DB6A0A9A934201D2FFF74AFC204602B0BDE8F087CC81FF1F00B585B0002300930193029303930C483A
:400900000C496422FFF77AFF01280DD1FFF740FC094B4FF0FF32DA620122C3F8E0200022C3F8D820FFF79CFC05B05DF804FB00BFC50B000040320000CC81FF1F034AD2F867
:40094000F0300133C2F8F030704700BFCC81FF1F2DE9F0413E4BD3F8F030002B66D13C4BD3F8D8200132C3F8D820D3F8D880B8F1000F0CD19A6AD3F8D0109962C3F8D0200E
:40098000D3F8F4200132C3F8F420FFF783FE304BDB6A984503D200273CE0012700E000272B4B9B6A1B680BB9012300E0002323B14FF0FF32264BDA622CE0254B9B6ADB685D
:4009C000DC686368984502D2214AD36222E0261D3046FFF78DFBA36A1BB104F11800FFF787FBE06A01238340194DD5F8E8201343C5F8E83005F1300300EB800080001844F9
:400A00003146FFF74FFBE26AD5F8D430DB6A9A42C3D2C5E70E4AD2F8D430DB6A03EB83039B0013441B6B012B08D808E0084AD2F8F8300133C2F8F830002700E00127044B5D
:400A4000D3F8FC3003B101273846BDE8F08100BFCC81FF1F70B5FFF7A7FB304BD3F8F020013AC3F8F020D3F8F030002B4ED12B4BD3F8DC3033BB00244BE0284C236ADD68C7
:400A800005F11800FFF734FB2E1D3046FFF730FBE86A01238340D4F8E8201343C4F8E83004F1300300EB8000800018443146FFF7F9FAEA6AD4F8D430DB6A9A4202D30122DE
:400AC000C4F8FC20154B5B69002BD6D1134BD3F8F8306BB911E0FFF73BFF18B101220F4BC3F8FC200D4AD2F8F830013BC2F8F8300A4BD3F8F830002BEDD1084BD3F8FC3093
:400B0000012B05D1FFF738FB012402E0002400E00024FFF75BFB204670BD00BFCC81FF1F10B5F0B10446FFF709FF104BD3F8D8201444D3F8D4000430FFF7DAFA58B90B4B2A
:400B4000D3F8D420D16A01228A40D3F8E81021EA0202C3F8E8202046FFF72EFEFFF77AFF00E0002008B9FFF707FB10BDCC81FF1F38B51FE0FFF7E2FE114BD3F8BC40FFF736
:400B800069FFBCB1FFF710FB0D4CD4F8C830DD68281DFFF7ADFAD4F8DC30013BC4F8DC30D4F8EC30013BC4F8EC30FFF70FFB2846FFF786FD024BD3F8EC30002BDAD138BD5D
:400BC000CC81FF1F08B5FFF7D3FFFCE7274BD3F8F03023B10122254BC3F8FC20704710B5224B0022C3F8FC20D3F8D4301B6B1A68B2F1A53F0BD15A68B2F1A53F07D19A6848
:400C0000B2F1A53F03D1DB68B3F1A53F07D0174BD3F8D400D3F8D410343100F081FD1348D0F8E830B3FA83F3DBB2C3F11F039A00D118890001444C6B64684C631A44920000
:400C400002443832944206D1606803EB83018900074A0A445060054A03EB83039B0013445B6BDB68C2F8D43010BD00BFCC81FF1FFC81FF1F38B50D46134CD4F8D41018315F
:400C8000FFF71CFAD4F8D4000430FFF731FA50B9D4F8D420D16A01228A40D4F8E81021EA0202C4F8E820B5F1FF3F06D10648D0F8D4100431FFF7F6F938BD034BD3F8D800F6
:400CC0002844FFF779FD38BDCC81FF1F38B5C368DC6804F118052846FFF70AFA154BD3F8F030ABB9251D2846FFF702FAE36A01229A401048D0F8E8100A43C0F8E8203030C6
:400D000003EB83039B0018442946FFF7CBF903E009482946FFF7C6F9E26A064BD3F8D430DB6A9A4204D90120024BC3F8FC0038BD002038BDCC81FF1FE081FF1F034BD3F82B
:400D4000F4200260D3F8D83043607047CC81FF1F38B504460D46FFF727FA124BD3F8D8202B68B3F1FF3F14D020680E49D1F8F410884202D0616891420DD96168501A834289
:400D80000BD98A1A13442B602046FFF7D7FF002404E0002402E0012400E00124FFF716FA204638BDCC81FF1F0122024BC3F8FC20704700BFCC81FF1F002850D038B50346ED
:400DC000C16A274AD2F8D420D26A914246D28269002A06DB224AD2F8D420D26AC2F1050282615969DA6A02EB820292001D480244914201D1012200E0002252B31D461C1D5A
:400E00002046FFF775F978B9EA6A02EB82039B0013490B441B6B3BB901239340D1F8E82022EA0303C1F8E8300D48D0F8D430DB6AEB6201229A40D0F8E8100A43C0F8E82009
:400E4000303003EB83039B0018442146FFF72AF938BD034AD2F8D420D26ADA6238BD7047CC81FF1FFC81FF1F002837D038B50346426C013A4264C06A196C884230D08ABB4B
:400E80001C461D1D2846FFF733F978B9E26A02EB82039B0014490B441B6B3BB901239340D1F8E82022EA0303C1F8E830236CE362C3F10502A261012404FA03F10A48D0F8E8
:400EC000E8200A43C0F8E820303003EB83039B0018442946FFF7E6F8204638BD00207047002038BD002038BDCC81FF1F064BD3F8D4302BB1044BD3F8D420536C0133536454
:400F0000014BD3F8D4007047CC81FF1F094A22F00702094BC3F838290020C3F83C0947F6F871C3F84419C3F84009516003F5146313607047D482FF1F94F9FF1F70B504460C
:400F4000FFF7FCFC264BD3F848392BB9FFF7DEFF0122234BC3F8482934B1083414F0070F02D024F007040834621E47F6F6739A422BD81B49D1F8383901F6381101E01946C7
:400F800013465A68A24202D21A68002AF7D1154A93421CD00D6808351A680A605A68121B102A0CD91E1972605C6074680E4900E011460A685068A042FAD332600E60596855
:400FC0000A4A13685B1A136002E0002500E00025FFF740FD0DB900F0A7FB284670BD00BF94F9FF1FD4020020CC0200201081FF1FD0B170B50546A0F10806FFF79FFC55F89D
:40100000044C0A4A00E01A4613685968A142FAD345F8083C166055F8041C054A13680B441360FFF717FD70BD704700BFCC0200201081FF1F70B50646134B1D785878002151
:4010400001F022F9012000F047FD45F0FC0001F077F905F00F0545F00C04204601F070F944EA0614E4B244F0040001F069F9012000F032FD04F0FB0001F062F9012000F07A
:401080002BFD01F041F970BD1481FF1F38B50546184B1C785878002101F0F6F8012000F01BFD44F0010001F04BF904F0FD0040F0010001F045F9002000F00EFD04F00D03FB
:4010C00043F00104204601F03BF944EA0514E4B244F0040001F034F9012000F0FDFC04F0F90001F02DF9012000F0F6FC01F00CF938BD00BF1481FF1F08B5012000F0ECFCD6
:4011000008BD00BF10B50446FFF7F6FF2009FFF7BDFF04F00F00FFF7B9FF10BD38B505460078012404E0FFF7EDFF285D0134E4B20028F8D138BD00BF10B50446FFF7DCFF68
:401140002009FFF777FF04F00F00FFF773FF10BD08B5282000F0AAFC0320FFF76BFF052000F0A4FC0320FFF765FF0F2000F09EFC0320FFF75FFF012000F098FC0220FFF765
:4011800059FF052000F092FC0620FFF7D5FF0E20FFF7D2FF2C20FFF7CFFF0820FFF7CCFF0120FFF7C9FF0C20FFF7C6FF0320FFF7C3FF052000F07AFC08BD00BF08B50C20BD
:4011C000FFF7BAFF0122014B1A7008BDE002002008B5054B5B7823B9FFF7BAFF0122024B5A70FFF7EBFF08BDE002002008B5032819D8DFE800F002070D1381F08000FFF794
:401200009BFF08BDA1F14000C0B2FFF795FF08BDA1F16C00C0B2FFF78FFF08BDA1F12C00C0B2FFF789FF08BD704700BF70B582B000268DF80760354601F0AEF8044601F064
:40124000B3F800EB4400C0B2B04212D0032806D1022E04D19DF8073001338DF80730032806D1012E04D19DF80730013B8DF8073006460135ADB2312D0FD99DF807305BB1C2
:40128000084B18680DF1070100221346FFF7EAF800258DF8075000E000250320FFF740FCCAE700BF10030020002303E00021034AD1540133012BF9D9704700BF00030020A0
:4012C00008B530B901F078F880F0010000F0010008BD012806D101F077F810F0010F03D1012002E0002000E00020C0B208BD00BF10B50022324B1A6059E0C0B2FFF7E0FF05
:401300002F4B18711B682F4AD45C052C4BD8DFE804F003090E13273B003018BF0120294AD05440E000B10220264AD0543BE000B10320244AD05436E0234A52F823002349BD
:4013400000221346FFF78EF81D4B1A6803EB8201002088601B7903B104231A498B5422E070B1174A02EB83029268322A00D905241449CC54124901EB830301329A6012E0AB
:401380000021104AD1540EE00F4A52F823000F4900221346FFF766F8094B1A681B7903B1234608498B54064A136801331360044B18680128A1D90A20FFF7B2FB99E700BF0B
:4013C000E402002000030020080300201681FF1F08B5012000F04AFB002000F089FD6420FFF79EFB002000F041FB012000F080FD4FF46170FFF794FBEBE700BF0000000024
:40140000F0B589B0704B186806901B798DF81C309DF8180000F0F2FB9DF8190000F0EEFB9DF81A0000F0EAFB9DF81B0000F0E6FB9DF81C0000F0E2FB6420FFF771FB634C6F
:40144000206800214FF0FF320B46FFF799F8604D01A8296801F000FB00200146FFF7C6FE01A8FFF75BFE01200021FFF7BFFE5948FFF754FE2D69206800210A460B46FEF7DC
:40148000F1FF6420FFF74CFB00273E464F4B186800214FF0FF320B46FFF772F84E4B1868FFF7EEF868B14C4B18680DF1020100221346FFF765F89DF9023003EB83035B00E9
:4014C0001D44464B18680DF1030100221346FFF757F8B8B10136F6B2032E00D900264048FFF71CFE3A4C01A854F8261001F0B4FA00200146FFF77AFE01A8FFF70FFE04EBE8
:4015000086042569BD4250D00024204629462CA3D3E9002300F060FF234614E0DA00C2F12004B2F1200E20FA02F201FA04F442EA040203D441FA0EFE42EA0E0208AC1C44FE
:4015400004F8082C0133032BE8D96A1E254B9A421FD89DF8180000F051FB9DF8190000F04DFB9DF81A0000F049FB9DF81B0000F045FB9DF81C0000F041FB00F017FB10F0DC
:40158000010FFAD001A818492A4601F041FA2F4604E001A815493A4601F03AFA01200521FFF724FE01A8FFF7B9FD084B186800210A460B46FEF756FF6420FFF7B1FA65E7A2
:4015C000405973070000000048320000040300201881FF1F50320000100300200803002058320000FE5962026C32000078320000034B044ADA62044A9A63044ADA637047AE
:401600000080FF1F55010000E50100002902000000B585B0FFF7ECFF62B6FFF705FEFFF743FE00F0B9FB00F0B5FCFFF7D1FD0120FEF784FF2D4B1860082001210022FEF79F
:40164000F5FE2B4B1860012001460022FEF7EEFE284C2060012001460022FEF7E7FE6060642000F023FA00200146FFF7BFFD2248FFF754FD01200021FFF7B8FD1F48FFF761
:401680004DFD4FF47A7000F011FA0126009600240194029403941A481A4980222346FFF7ADF803250095019402940394164817494FF480722346FFF7A1F80096019402947F
:4016C00003941348134980222346FFF797F80095019402940394104810494FF480622346FFF78CF8FFF704F9FEE700BF040300201003002008030020843200009432000064
:40170000D1130000A03200002D120000A4320000F1120000A832000001140000AC32000008B5FEF735FDFEE708B5FEF731FDFEE7FEE700BF08B5094B1A681044084BC31AC5
:40174000802B02DC054B186005E001F021F90C2303604FF0FF32104608BD00BF3881FF1F4803002008B5104E104D16E029686B68AC68002204E051F8040B43F8040B043246
:40178000A242F8D1E868002203E0002143F8041B04328242F9D11035013E002EE6D101F0FDF8FFF735FFFEE701000000A033000008B5124A124B1A60124A136843F4007345
:4017C000136000230AE0032B03D80F4A52F8231000E00E490E4A42F8231001332F2BF2D90C4B1A780C4B1A70094A0C4B1A6000F0B1F800220A4B1A6008BD00BF0004FA0536
:401800000CED00E014ED00E000000000311700000080FF1FBC7600400481FF1F08ED00E00081FF1FFEE700BFF0B40022174611E050F82760F3B226F0FF0608E001EB42051D
:4018400011F812406D78A5550132013BDBB2002BF4D10137132FEBD9F0BC7047064B1B78DBB203F00701054A11701B09013213704422034B1A707047CF0100496E58004077
:401880007658004038B54122244B1A80182202331A70062203F27E231A705222A3F580731A701F4B1B78DBB21E4A137040F621321D4B1A8041F25122023B1A800024192518
:4018C0000CE01A4B1B7803F0010343EA440404F003044FF4F07000F0D7F8013D0DB1032CEFD115B90320FFF79DFF114A4FF4807313800723137000230E490B70482002316C
:40190000087013700532137002220B4B1A700B4A137843F00103137038BD00BF804000400F010049A14600402242004025420040044000400640004001400040A243004025
:4019400008B50A46002101F05AF808BD08B501F04BF808BD10B572B6344C61232370FFF791FF01232370324A137843F00403137000240CE02F4963001A1952000A442344D1
:401980005B00C8589188FFF7DBFF0134E4B2082CF0D900240BE02749A3001A1952000A44906BD16B8022FFF7D1FF0134E4B2002CF1D04FF090402049FFF736FF1F4A137818
:4019C00043F0020313701032137843F0020313701B4C237843F040032370A2F58632513A137843F010031370164817490822FFF7ADFF164816490822FFF7A8FF15481649A1
:401A00000822FFF7A3FF154815490A22FFF79EFF144A137843F008031370FFF71FFF124821460E22FFF792FF10BD00BF00480040E846004000330000500000480350014053
:401A4000A0430040C2510040E8020048F2510040F002004812510040F8020048205100400003004822430040B0430040044A137803F0FD03400000F00200184310707047B8
:401A800020510040000000000230800803D000BF01380046FCD17047EFF3108072B6704780F31088704700BF01BE704710B5044605E0084B1868FFF7E7FFA4F50044B4F5B5
:401AC000004FF6D8034B586800FB04F0FFF7DCFF10BD00BF3C81FF1F08B5034B1B7A03FB00F0FFF7D1FF08BD3C81FF1F70B504460E46074B1D681F2802D90020FFF7D4FFFB
:401B000004F01F04103455F8240045F8246070BD08ED00E038B504460D46072902D90020FFF7C2FF1F2C02D90020FFF7BDFF04F01F0000F1604000F564406D01EDB20570F3
:401B400038BD00BF0222014B1A60704700E100E00122014B1A60704700E100E008B5FFF79BFF0B4A137843F02003137002F58072137843F0100313700132137843F01003A7
:401B80001370FFF78DFFFFF7DDFFFFF7E1FF08BD986400400222014B1A60704780E100E00122014B1A60704780E100E010B5FFF7F1FF064B1C78064A137803F009031C43EB
:401BC00000231370FFF7BEFF204610BD686500401D03002010B5FFF7E3FF064B1B78064A147804F040041C4300231370FFF7B0FF204610BD696500402A03002010B5044630
:401C00002A4B1A7802F0FF0312B1013BDBB200E00423274A1278D2B29342F1D0FFF7BAFF244B1978244A137803F009030B4313701E4B1B781E4A1278DBB2934207D11E4BF8
:401C40001B7813F0040F02D01C4B1C702BE0184A13780133DBB213701378DBB2042B02D90022134B1A70124B1B78104A1278DBB293420ED10D4A13780133DBB213701378C8
:401C8000DBB2042B02D90022084B1A7001220C4B1A70074B1B78DBB20A4AD4540A4A137843F004031370FFF74DFF10BD2603002028030020686500401D0300204864004024
:401CC00025030020180300208865004008B501E00A4B1B780A4B1B7813F0200FF8D1FFF7DBFE084B1A7842F001021A701A7802F0FE021A70FFF7D4FE08BD00BF5864004002
:401D0000696500409864004010B50F22174B1A70174C0223236001200721FFF7FBFE01201449FFF7E3FE0123236000200721FFF7F1FE00201049FFF7D9FEFFF7C7FF0024E5
:401D40000E4B1C700E4B1C700E4B1C700E4B1C700E4B1C700E4B1C70FFF728FFFFF73AFF0C4B1C70202201331A7010BD8864004080E100E0B51D0000511E00001403002024
:401D800029030020270300202503002026030020280300208865004008B5054B1B7823B9FFF7B2FF0122024B1A70FFF7D7FE08BDF402002028E01E4B19781E4A137803F0D9
:401DC00009030B431370137813F0040F23D01A4B1B7813F0FF0F0CD1184A13780133DBB213701378DBB2042B06D90022134B1A7002E00022104B1A70104B1B78DBB2104A6D
:401E0000D35CDBB20F4A13700C4B1B780E4A1278DBB29342CFD1094B1B780B4A1278DBB2934204D1094A137803F0FB0313707047686500401D030020250300202603002058
:401E400018030020486400402803002088650040204B1A7820490B7803F0400313430B7031E01E4B1A78D2B21D490B780133DBB20B700B78DBB2042B02D90021184B1970F7
:401E8000174B1B7817490978DBB28B420ED115490B780133DBB20B700B78DBB2042B02D90021104B197001210F4B19700C4B1B78DBB20E49CA54074B1A7807490B7803F03C
:401EC000400313430B70044B1B7813F0200FC8D1704700BF696500402A0300205864004027030020290300201403002020030020044A137803F0EF03000100F0100018432A
:401F000010707047F051004010B50222114B1A7081220E3B1A70082202331A702A2211331A70002401331C704FF400420A4B1A600F200721FFF7EEFD0F200849FFF7D6FDE8
:401F40001022074B1A70074B1C70074B1C70074B1C7010BDD649004080E100E0BD1F00002B0300202E030020300300202C03002008B5FFF791FD064A137843F00403137056
:401F80001032137843F004031370FFF789FD08BDA543004008B5074B1B7823B9FFF7B4FF0122044B1A70FFF7E3FF4FF40042024B1A6008BDF502002000E100E038B5A44B6E
:401FC0001C78E4B2A34B1B7813F0400F00F0378114F0010F00F01B819E4B1B78453B052B00F21281DFE813F006008200100110010600DE0004F0DF0504F00A04082C42D172
:40200000944B1B78DBB2452B35D1934B1B7813F0FF0F10D0914B1B681B78DBB2904A137004228B4B1A7001228E4B1A704622894B1A702C46EBE08C4B1B7813F0020F0DD083
:402040008A4A137843F00A0313706022814B1A704FF40042864B1A602C46D8E0854A137843F0100313701022834B1A700422023B1A702C46CBE00022754B1A704A22754B1D
:402080001A702C46C3E00A2C2BD1784A137843F0A0031370744B1B7813F0020F14D06D4B1B7813F0080F01D0092300E00A236F4A11780B4313706022664B1A704FF400429B
:4020C0006B4B1A602C46A2E06A4A137843F0100313701022684B1A700422023B1A702C4695E00020FFF7E0FC2C4690E014F0020F35D15C4B1B78584A1278DBB2934210D2D8
:40210000584A1378DBB255490968CB5CDBB254490B7004214E4B197013780133DBB2137075E0514B1B7813F0020F0CD04F4A137843F00A0313706022464B1A704FF4004277
:402140004B4B1A6063E04B4A137843F0100313701022494B1A700422023B1A7057E0424B1B7813F0020F0CD0404A137843F09A0313706022374B1A704FF400423C4B1A6023
:4021800045E03C4A137843F01003137010223A4B1A700422023B1A70344A137843F09003137034E0354A1378DBB2354908682C490978C9B2C15413780133DBB21370137827
:4021C000304A1278DBB2934203D21022204B1A701DE0254B1B7813F0020F0CD0234A137843F00903137060221A4B1A704FF400421F4B1A600BE01F4A137843F01003137051
:402200000022134B1A7002E00020FFF74DFC14F0200F1CD00F4B1B7813F0080F01D0012300E00223114A11780B431370114A137803F0EF0313701022064B1A7038BD054BDE
:402240001B7813F0100F02D11022024B1A7038BDD74900402B0300202F03002034030020D84900402C0300202D0300202E03002080E100E0D6490040D949004030030020DB
:40228000380300203C0300201A4B1B78DBB2102B29D1194B1B7813F0080F26D14FF40042164B1A604000C0B229B140F001004922104B1A7002E045220E4B1A70104B187026
:4022C000012201331A700F4B1B7813F0010FFAD00C4B1B7803F00A030A2B08D11022054B1A700320704702207047012070470020704700BF2B030020D949004080E100E01D
:40230000D8490040D74900400A4B1B7813F0040F0ED01023074A13700421023A1170064A1370064B1B7813F0210FFAD00020704702207047D94900402B030020D7490040A3
:40234000114B1B7813F0040F1BD0104B18700422013B1A7046220E4B1A700E4B1B7813F0010FFAD00B4B1B7813F0020F04D16022074B1A70002070476022054B1A70032004
:4023800070470220704700BFD9490040D84900402B030020D7490040024B1878C0F30010704700BF21510040024B1878C0F34010704700BF21510040024B1878C0F380007D
:4023C000704700BF21510040024B1878C0F3C000704700BF215100407BB972B90029BEBF00204FF0004106E008BF00281CBF6FF000414FF0FF3000F03BB882B0EC462DE97D
:40240000005000F005F8DDF804E002B00CBC70472DE9F041069C904606460F461D4600F029F808FB01FCA8FB002300FB05C5B21A2B4467EB03038646C4E90023BDE8F081D1
:402440002DE9F843089E1746804689461D4600F067F900FB05F3A0FB074507FB0137B8EB04043D4469EB0505C6E90045BDE8F883704700BF00292DE9F043C0F2A880002626
:40248000002BC0F29E8081468E4690469C46174604460D46002B3DD18A4259D9B2FA82F33BB1C3F120029D4020FA02F29F4015439C40390CB5FBF1F01FFA87FE01FB1055E7
:4024C0000EFB00F3220C42EA0545AB4209D9ED1900F1FF3280F00B81AB4240F2088102383D44ED1AB5FBF1F301FB13550EFB03FEA4B244EA0545AE4508D9ED1903F1FF3210
:4025000080F0F780AE4540F2F480023B43EA0043002203E08B420FD900221346341C18BF012460424FF0000565EB45015840514000196941BDE8F083B3FA83F2002A40F0F1
:4025400089808B4202D3804500F2E2800123E5E712B90123B3FBF2F7B7FA87F8B8F1000F3BD1ED1B4FEA174C1FFA87FE0122B5FBFCF00CFB10550EFB00F3210C41EA054522
:40258000AB4207D9ED1900F1FF3102D2AB4200F2C3800846ED1AB5FBFCF30CFB13550EFB03FEA4B244EA0545AE4507D9ED1903F1FF3102D2AE4500F2AD800B4643EA004352
:4025C000ACE752426FEA060663EB43035BE7404261EB41014FF0FF3652E707FA08F7C8F1200225FA02F34FEA174CB3FBFCF11FFA87FE0CFB113324FA02F205FA08F50EFB96
:4026000001F92A43100C40EA0343994504FA08F407D9DB1901F1FF3078D2994576D902393B44C9EB0303B3FBFCF00CFB10330EFB00F592B242EA03439D4207D9DB1900F1B3
:40264000FF325FD29D425DD902383B445D1B40EA01428CE7C2F1200328FA03F10CFA02FC41EA0C0C4FEA1C402EFA03F1B1FBF0F51FFA8CF700FB151129FA03F30EFA02FE7F
:4026800007FB05F943EA0E0E4FEA1E4343EA0141894508FA02F808D911EB0C0105F1FF3332D2894530D9023D6144C9EB0101B1FBF0F300FB131107FB03F71FFA8EFE4EEAF0
:4026C000014E774508D91EEB0C0E03F1FF3117D2774515D9023BE64443EA0543A3FB0889C7EB0E0ECE4509D305D0002216E71046F7E613460AE794404445F6D2013BF4E79F
:402700000B46E9E71046A1E71D46CEE7014688E7134603E7023B51E702383D443AE700BF2DE9F043002B44D18A42154604464FD9B2FA82F70E464FB1C7F12003B94020FAF0
:4027400003F602FA07F50E4300FA07F42F0CB6FBF7F01FFA85FE07FB10620EFB00F1260C46EA0243994209D95B1900F1FF3280F0EE80994240F2EB8002382B44591AB1FB2D
:40278000F7F307FB13110EFB03FEA4B244EA01418E4508D9491903F1FF3280F0DA808E4540F2D780023B43EA004000263146BDE8F0838B4247D8B3FA83F6002E48D18B4253
:4027C00002D3824200F2CF8001203146BDE8F08312B90125B5FBF2F5B5FA85FCBCF1000F78D1491B2F0C1FFA85FE0126B1FBF7F007FB10110EFB00F2230C43EA01418A4215
:4028000007D9491900F1FF3302D28A4200F2BC801846891AB1FBF7F307FB13110EFB03FEA4B244EA0142964508D9521903F1FF3180F09180964540F28E80023B43EA004046
:402840003146BDE8F083002630463146BDE8F083C6F1200422FA04F5B3402B4321FA04F74FEA1348B7FBF8FC1FFA83F908FB1C7720FA04FE01FA06F509FB0CF44EEA05057A
:402880004FEA154E4EEA0747BC4202FA06F204D9FF180CF1FF3168D38C463F1BB7FBF8F408FB147709FB04F9ADB245EA0741894504D9C91804F1FF355DD32C4644EA0C44A4
:4028C000A4FB0223C9EB0101994249D345D0204600266BE7CCF1200405FA0CF521FA04F32A0CB3FBF2F61FFA85FE02FB163820FA04F701FA0CF10EFB06F90F433C0C44EAF1
:402900000843994500FA0CF407D95B1906F1FF3138D2994536D9023E2B44C9EB0303B3FBF2F002FB10330EFB00F1BFB247EA0343994207D95B1900F1FF3721D299421FD9CB
:4029400002382B441746591A40EA06464EE7104614E7134627E70B4670E7B0409042B6D2601E002622E7304620E7BC4294D9ACF1020C1F4491E789459FD9023C19449DE709
:402980003846DFE70E46C8E70238294441E700BF014B1868704700BFAC81FF1F0E4B70B51E460E4C0025E41AA410A54204D056F8253098470135F8E700F0E0FC084B094CDC
:4029C0001E46E41AA4100025A54204D056F8253098470135F8E770BD8833000088330000883300009033000010B5431E0A44914204D011F8014B03F8014FF8E710BD034679
:402A00000244934202D003F8011BFAE7704700000EB400B54FF402719CB0ADF814106FF00041049107914FF6FF711DABADF81610084953F8042B02900690086802A9019301
:402A400000F06CF8029B00221A701CB05DF804EB03B07047AC81FF1F034611F8012B03F8012B002AF9D170472DE9F0478E688246B3420C469046994640D38A8912F4906F72
:402A80003AD02568096902236F1A656905EB450595FBF3F57B1C4B449D4238BF1D4653050FD5294600F030FB064698B121693A46FFF79AFFA38923F4906343F08003A3817C
:402AC00013E02A4600F076FB064670B95046216900F0D6FA0C23CAF80030A3894FF0FF3043F04003A381BDE8F08726613E4426604E466561ED1BA560B14500D24E46324682
:402B00002068414600F0A0FAA36800209B1BA36023681E442660BDE8F08700002DE9F0439DB003938B8906461C060D4690460CD50B6953B9402100F0E7FA2860286110B945
:402B40000C233360CCE040236B610023099320238DF8293030238DF82A3043461C4613F8012B1AB9B4EB08090FD002E0252AF5D1F8E73046294642464B46FFF775FF0130B3
:402B800000F0A980099B4B4409932378002B00F0A28000234FF0FF3204930793059206938DF853301A9304F101084446DFF8489121784846052200F039FA08F10108049B62
:402BC00030B1C9EB00000122824013430493ECE7D80644BF20228DF85320190744BF2B228DF8532022782A2A02D0079923460EE0039A0134111D12680391002ABBBF52421B
:402C000043F0020307920792B8BF04930AE01C4622780133303A092A03D80A2000FB0121F5E7079123782E2B1AD163782A2B0AD1039B02341A1D1B680392002BB8BF4FF0E1
:402C4000FF3305930CE0611C00220C4623780131303B092B03D80A2000FB0232F5E70592DFF8988021784046032200F0DFF938B1049AC8EB0000402383401343049301341D
:402C800021781A48062204F101088DF8281000F0CDF988B1164B33B9039B073323F007030833039313E003AB0093304604A92A46104BAFF3008007E003AB0093304604A9A5
:402CC0002A460C4B00F092F8421C074603D0099B3B44099341E7AB895B0601D4099801E04FF0FF301DB0BDE8F08300BF5033000000000000692A0000463300004C33000022
:402D00002DE9F84391461F468A680B6906469342B8BF1346C9F8003091F843200C46DDF8208012B10133C9F800302368990642BFD9F800300233C9F80030256815F0060534
:402D40001CD094F843302268003318BF012392061FD5E118302081F843005A1C94F845102244023382F8431013E03046394604F119020123C047013007D00135E368D9F8E3
:402D800000209B1A9D42F0DBDBE74FF0FF30BDE8F8833046394604F14302C0470130F4D02268D9F80050E36802F00602042A08BF5D1B2269A3680CBF25EAE57500259342F8
:402DC000C4BF9B1AED184FF00009A9450ADA3046394604F11A020123C0470130D5D009F10109F2E70020BDE8F88300002DE9FF410C461746227E98466E2A06460A9B01F15A
:402E0000430100F0B08012D8632A23D00AD8002A00F0BD80582A40F0CC8084F84520DFF804E257E0642A1ED0692A1CD0C1E0732A00F0B18009D86F2A2ED0702A40F0B980E3
:402E4000226842F0200222603FE0752A24D0782A3BD0AEE01A6804F14205111D1960136884F84230A9E020681A6810F0800F02D0101D186008E010F0400F02F104001860F8
:402E800002D0B2F9003000E01368002B3EDA2D225B4284F8432039E020681A6810F0800F02D0101D186007E010F0400F02F10400186001D0138800E01368227EDFF864E1AB
:402EC0006F2A0CBF08220A221CE07822DFF858E184F845202268186812F0800F00F104051D6003D1550601D5038800E00368D00744BF42F0200222601BB9226822F0200262
:402F000022601022002084F8430002E0DFF814E10A226568002DA8BF2068A560A4BF20F00400206003B965B10D46B3FBF2F002FB10331EF8033005F8013D03460028F4D190
:402F400000E00D46082A0BD12368DA0708D5236962689A42DEBF302305F8013C05F1FF35491B21612EE025681A6815F0800F606903D0151D1D60136808E015F0400F02F1B5
:402F800004051D60136801D0188000E01860002323610D4616E01A68111D1960156800212846626800F042F808B1401B6060636804E004F1420584F84220012323610023CE
:402FC00084F84330CDF800803046214603AA3B46FFF796FE013002D14FF0FF301FE0304639462A462369C0470130F5D023689B0705D4E068039B9842B8BF18460FE00025FA
:40300000E368039A9B1A9D42F3DA3046394604F119020123C0470130DED00135F0E704B0BDE8F081573300006833000010B5C9B202449042034605D01C7801308C42F8D16A
:40304000184610BD002010BD814210B501EB020301D3421E0BE09842FBD28118D21AD34204D013F8014D01F8014DF8E710BD994204D011F8014B02F8014FF8E710BD000045
:4030800030B500293CD051F8042C0B1F1D49002AB8BF9B180A680C4612B95A600B6030BD93420DD219685818904201BF5A5852181A60426823605A6030BD994203D80A4651
:4030C00051680029F9D1146815199D420AD11B682344D0188842136012D10868034413604B680CE002D90C23036030BD1C681819884201BF0868496800191860596053604E
:4031000030BD00BFFC02002070B5CC1C24F0030408340C2C38BF0C24002C064603DA0C233360002070BD8C42F9D3204A136810461946A1B10A68121B0ED40B2A03D90A601C
:403140008B188C501FE08B420BBF5A684A6802605A6018BF0B4616E00B464968E9E7144D2B681BB9304600F04BF828603046214600F046F8421C0346D1D0C51C25F0030570
:4031800085420AD11C6003F10B001A1D20F00700821A0AD05142995070BD3046E91A00F02FF80130BBD02B46ECE770BDFC020020F8020020F8B5074615460E4621B91146B6
:4031C000BDE8F840FFF7A0BF1AB9FFF759FF2846F8BD00F025F8A8420ED238462946FFF793FF044650B131462A46FFF7FDFB38463146FFF745FF01E03046F8BD2046F8BD97
:4032000038B5064C0023054608462360FEF792FA431C02D1236803B12B6038BD4003002051F8040C0028BEBF091851F8043CC01804387047000000003CF2FF7F010000001B
:4032400049444C4500000000F8084C0700000000467265713A000000202020202020202020202020202020200000000025376C645B487A5D000000004572726F7220205BCA
:40328000487A5D00435938434B49542D3035395F444453006765742073746172746564004C454400524F54004B455900444452004E484B3120202020202020202020202075
:4032C000000000004E484B32202020202020202020202020000000005442432020202020202020202020202000000000424541434F4E2020202020202020202000000000DA
:40330000C8490040190000510040100030510040400000000140000880080140800700140140000800400140000A004C0140000200500140200000000008014068020048C5
:40334000800000004300232D302B2000686C4C006566674546470030313233343536373839414243444546003031323334353637383961626364656600000000F8B500BF2B
:40338000F8BC08BC9E4670474D000000B1170000F8B500BFF8BC08BC9E46704729000000B03300000881FF1FA80000009881000000000000AAAAAAAAF87F000008270100A3
:4033C000B0320000C4320000D8320000EC32000078980D00E89D1000E039130028F90600480300200000E880D0010100420000008014EF030000000000000000000000005B
:403400000000000000000000000000000000000000000000443300000000000000000000000000000000000000000000000000000000000000000000000000000000000015
:4034400000000000000000000000000000000000000000004C81FF1F0000000000000000000000000000000000000000000000000000000000000000000000000000000061
:40348000000000000000000000000000000000000000000000000000000000000000000000000000000000000000000000000000000000000000000000000000000000000C
:4034C00000000000000000000000000000000000000000000000000000000000000000000000000000000000000000000000000000000000000000000000000000000000CC
:40350000000000000000000000000000000000000000000000000000000000000000000000000000000000000000000000000000000000000000000000000000000000008B
:40354000000000000000000000000000000000000000000000000000000000000000000000000000000000000000000000000000000000000000000000000000000000004B
:020000040003F7
:0200000480007A
:400000000252004001640040010701400A0801403209014004150140021701403D1801403D190140051B0140034001400241014006420140054301400648014010490140EA
:400040000B4C01400F4D0140045001400251014060426148880FE208810485018702910495069701B707BB80D904DF010401060207280D200E810F20154017141DA01E4280
:400080001F08200123022408250C264427282C022E11300231083640372A38093D403E0645A847024C044F065403571467016C806D406E156F157602852088018A10C0F077
:4000C000C2F0C4E0CAB0CCF3CED3D0F0D220D810E008E280E401EA21E208E60100020149020803960555062007AA08010A020C0D0D020F0D1002120D15331610174C180296
:4001000019E01A041C0D200D240D280D300F322033F03610370F39083A023B8054095604580459045B045F01820686028F019501960699019A019C019D01A101A404AF0109
:40014000B001B301B406BE01BF04D440D604D804D904DB04DF01000504010602072809080A010B080C800D020E1812801309171518841D021E111F042208254026802720E4
:400180002A022B0130803314372839403C013D885E625F0460806208630A64026780808087408C049001914092409304970198029A029B1DA080A10CA215A305B002B308AE
:4001C000C0FCC2F7C474CA09CC6ECED8D6F0D89FB440E008E280E401EA2132403580CC3096809D803E10508096809D80CE20D420848096909D80A480E21082408580969061
:400200009D80E210E68012201640740178808220864088019880AA10B080C430DC80DE20E010E480EA8010101320144060017B107F408E20C40ED602DE03E40276208310BB
:4002400087408840978098409A20A710AB20B010B401DE04E201EA04EC0800010C0110011C01000F03C00000569A09000A981002070038008498000204FC000360130064B6
:40028000012100D8843800C0009A00008000040084020098040280000800020F7F1380E020000088000045003406100002DEB0CF3BFFFFFF2200F0480400000000000220AD
:4002C00004040404000000010000C00040021012C0020012400240020000000000000000000000000000000000484B004B00000000101000000000000080800080000000F3
:400300003C00003E02000000000000000000000000000000000000000000000000000000000000000000000000000000000000000000000000000000000000000000000041
:40034000000000000000000000000000000000000000000000000000000000000000000000000000000000000000000000000000000000000000000000000000000000007D
:40038000000000000000000000000000000000000000000000000000000000000000000000000000000000000000000000000000000000000000000000000000000000003D
:4003C00000000000000000000000000000000000000000000000000000000000000000000000000000000000000000000000000000000000000000000000000000000000FD
:4004000000000000000000000000000000000000000000000000000000000000000000000000000000000000000000000000000000000000000000000000000000000000BC
:0200000490006A
:0400000000004005B7
:0200000490105A
:04000000BC90ACAF55
:0200000490303A
:02000000AEA0B0
:0200000490402A
:4000000000000000000000000000000000000000000000000000000000000000000000000000000000000000000000000000000000000000000000000000000000000000C0
:400040000000000000000000000000000000000000000000000000000000000000000000000000000000000000000000000000000000000000000000000000000000000080
:400080000000000000000000000000000000000000000000000000000000000000000000000000000000000000000000000000000000000000000000000000000000000040
:4000C0000000000000000000000000000000000000000000000000000000000000000000000000000000000000000000000000000000000000000000000000000000000000
:0200000490501A
:0C00000000012E16106900012E2BBF0914
:00000001FF