:400000000080002011000000711C0000711C000008B5044B1A6803F53F5302331A6001F041FE00BFFA46004010B5054C237833B9044B13B10448AFF300800123237010BD1D
:400040006081FF1F00000000D4320000084B10B51BB108490848AFF300800848036803B910BD074B002BFBD0BDE81040184700BF000000006481FF1FD4320000C880FF1FC6
:400080000000000000F1080343604FF0FF328260C360036100230360704700BF00230361704700BF43684B609A688A609A68516099600861036801330360704730B40D6866
:4000C000B5F1FF3F01D1026907E000F1080200E01A4653681C68A542FAD253684B6099608A605160086103680133036030BC704703694268816891608268416851605A68CD
:40010000904201D182685A6000220261186801381860704706480068006880F3088862B661B6BFF34F8FBFF36F8F00DF00BF000008ED00E04FF0807340F8043C40F8081C01
:40014000034B40F80C3C40F8202C4038704700BFA1010000074B19680868B0E8F00F80F30988BFF36F8F4FF0000080F311884EF00D0E70475082FF1F4FF08052034B1A60EB
:40018000BFF34F8FBFF36F8F704700BF04ED00E0EFF311804FF0A00181F311887047002008B5FFF7F5FFFEE708B5FFF7F1FF044A136801331360BFF34F8FBFF36F8F08BDDD
:4001C000CC80FF1F80F31188704700BF08B5044A1368013B136013B90020FFF7F3FF08BDCC80FF1FEFF30980BFF36F8F0D4B1A6820E9F00F10602DE908404FF0A00080F3BE
:40020000118800F01DFD4FF0000080F31188BDE8084019680868B0E8F00F80F30988BFF36F8F70475082FF1F08B5FFF7B1FF00F0C7FB18B14FF08052024B1A600020FFF734
:40024000C1FF08BD04ED00E0034A044B1A600722043B1A60704700BFCF01010014E000E008B5094B1A6842F460021A601A6842F060421A60FFF7E8FF0022044B1A60FFF7E2
:4002800049FFFFF78DFF00BF20ED00E0CC80FF1F10B50446FFF788FFA26BE36B9A4201D1012400E00024FFF791FF204610BD00BF10B50446FFF778FFA36B0BB9012400E0D5
:4002C0000024FFF783FF204610BD00BF38B504461546026C3AB903685BBB406800F004FE002363602CE06DB9806802F0BBFBA268236C1344A360626893421CD32368A360AB
:4003000000201DE0C06802F0ADFB236C5B42E2681A44E26021688A4202D262681344E360022D0AD1A36B53B1A36B013BA363002006E0002004E0002002E0002000E00020A3
:40034000A36B0133A36338BD026C72B110B5C3681344C3604468A34201D30368C3600C46C168204602F07EFB10BD704710B50446FFF71AFF0BE0636A63B104F1240000F08F
:40038000E1FC08B100F04EFDA36C013BA364A36C002BF0DC4FF0FF33A364FFF717FFFFF703FF0BE0236963B104F1100000F0CAFC08B100F037FD636C013B6364636C002BA9
:4003C000F0DC4FF0FF336364FFF700FF10BD00BF38B504460D46FFF7E7FE2168E26B236C03FB021060600020A063A160013A02FB0313E3604FF0FF336364A36455B9236950
:4004000083B104F1100000F09DFC01280AD1FFF7B3FE07E004F11000FFF734FE04F12400FFF730FEFFF7D2FE012038BD70B506460D4619B100FB01F0013000E000204C30FB
:4004400000F0BEFD044658B10DB9206002E000F14C030360E663256401212046FFF7B8FF204670BDF0B585B004460F4601921E460025FFF799FEA26BE36B9A4201D3022EBC
:4004800016D1324639462046FFF720FF636A43B104F1240000F056FC012805D1FFF76CFE02E008B1FFF768FEFFF790FE012042E0019B1BB9FFF78AFE00203CE01DB902A800
:4004C00000F07AFC0125FFF781FE00F06FFAFFF76BFE636CB3F1FF3F01D100236364A36CB3F1FF3F01D10023A364FFF76FFE01A902A800F06BFCC0B92046FFF7C9FE70B11E
:40050000019904F1100000F0EFFB2046FFF72EFF00F0D8FA0028ACD1FFF72EFEA9E72046FFF724FF00F0CEFAA3E72046FFF71EFF00F0C8FA002005B0F0BD00BF38B54C201A
:4005400000F03EFD0446C8B10025456005608560C56085630123C36305644FF0FF33436483641030FFF78EFD04F12400FFF78AFD2B462A4629462046FFF774FF204638BDE9
:400580002DE9F04104460F4690461D46FFF700FE0646A26BE36B9A4201D3022D1BD12A4639462046FFF792FEA36CB3F1FF3F0DD1636A93B104F1240000F0C4FB78B1B8F161
:4005C000000F0ED00124C8F800400BE0A36C0133A364012406E0002404E0012402E0012400E001243046FFF7EDFD2046BDE8F081F0B585B004460F4601921E460025FFF713
:40060000D3FDA36B33B3E56839462046FFF79CFE96B9A36B013BA363236813B900F0A8FC6060236993B104F1100000F08BFB01280CD1FFF7A1FD09E0E560636A33B104F131
:40064000240000F07FFB08B1FFF796FDFFF7BEFD01204BE0019B1BB9FFF7B8FD002045E01DB902A800F0A8FB0125FFF7AFFD00F09DF9FFF799FD636CB3F1FF3F01D10023BA
:400680006364A36CB3F1FF3F01D10023A364FFF79DFD01A902A800F099FB08BB2046FFF707FEB8B1236833B9FFF77EFD606800F0C1FBFFF78BFD019904F1240000F014FB05
:4006C0002046FFF753FE00F0FDF9002897D1FFF753FD94E72046FFF749FE00F0F3F98EE72046FFF743FE00F0EDF9002005B0F0BD10B50446FFF758FDA46BFFF767FD204604
:4007000010BD00BF094B9B6A1B680BB9012300E0002323B14FF0FF32044BDA627047034B9A6AD268D2685268DA6270477C81FF1F10B50446006B00F09DFC204600F09AFC63
:4007400010BD00BF70B506460C4619B9800000F037FC044654B1502000F032FC054608B1046304E0204600F085FC00E0002525B1B200A521286B02F080F9284670BD00BF07
:4007800070B504461546002306E0C85CE21882F83400CA5C12B101330B2BF6D9002384F83F30042D00D90425E562256400266664201DFFF773FC04F11800FFF76FFC2461E2
:4007C000C5F10505A5616462A66484F84C6070BD70B5002407E004EB8402930010481844FFF750FC0134042CF5D90E4C04F194063046FFF747FC04F1A8052846FFF742FCD1
:4008000004F11400FFF73EFC04F1BC00FFF73AFC2046FFF737FCA662C4F8D05070BD00BFAC81FF1F7C81FF1F38B50F4BD3F8D4205060D3F8D830984208D20B4BD3F8D000AF
:40084000D3F8D4100431FFF739FC38BD0446064DA86AD5F8D4100431FFF730FCEB6A9C4200D2EC6238BD00BF7C81FF1F2DE9F04782B080468A46164699460B9F0C991046A6
:40088000FFF760FF002854D00446036B06F18045013D03EB850525F0070500960D9B0A9A5146FFF76DFF4A4641462846FFF742FC206007B13C60FFF777FC284BD3F8DC2041
:4008C0000132C3F8DC20D3F8D4304BB9234BC3F8D440D3F8DC30012B10D1FFF779FF0DE01E4BD3F8E0304BB91C4BD3F8D430DB6A0A9A9A4202D3194BC3F8D440174BD3F847
:40090000E4200132C3F8E420E26A012505FA02F0D3F8E8100143C3F8E810303302EB82029000211D1844FFF7BDFBFFF74FFC2C4601E04FF0FF34012C0CD1084BD3F8E030BA
:4009400043B1064BD3F8D430DB6A0A9A9A4201D9FFF712FC204602B0BDE8F0877C81FF1F00B585B00023039302930193009364220B490C48FFF77AFF01280DD1FFF708FC74
:40098000094B4FF0FF32DA620122C3F8E0200022C3F8D820FFF764FC05B05DF804FB00BFD8320000390C00007C81FF1F034AD2F8F0300133C2F8F030704700BF7C81FF1F26
:4009C0002DE9F0413E4BD3F8F030002B67D13C4BD3F8D8200132C3F8D820D3F8D880B8F1000F0CD19A6AD3F8D0109962C3F8D020D3F8F4200132C3F8F420FFF783FE304BC9
:400A0000DB6A984503D200273DE0012700E000272B4B9B6A1B680BB9012300E0002323B14FF0FF32264BDA622DE0254B9B6ADB68DC686368984502D2214AD36223E0261D07
:400A40003046FFF755FBA36A1BB104F11800FFF74FFBE36A012202FA03F1194DD5F8E8200A43C5F8E82005F1300003EB83039A0031461044FFF716FBE26AD5F8D430DB6A7F
:400A80009A42C2D2C4E70E49D1F8D430DB6A03EB83039A000A44136B012B08D808E0084AD2F8F8300133C2F8F830002700E00127034BD3F8FC3003B101273846BDE8F081A6
:400AC0007C81FF1F70B5FFF76FFB304BD3F8F020013AC3F8F020D3F8F030002B4FD12B4BD3F8DC303BBB00244CE0284C236ADD6805F11800FFF7FCFA2E1D3046FFF7F8FA48
:400B0000EB6A012202FA03F1D4F8E8200A43C4F8E82004F1300003EB83039A0031461044FFF7C0FAEA6AD4F8D430DB6A9A4202D30122C4F8FC20154B5B69002BD5D1134B52
:400B4000D3F8F8306BB911E0FFF73AFF18B101220E4BC3F8FC200D4AD2F8F830013BC2F8F8300A4BD3F8F830002BEDD1074BD3F8FC30012B05D1FFF7FFFA012402E0002425
:400B800000E00024FFF722FB204670BD7C81FF1F10B5F8B10446FFF709FF114BD3F8D8201444D3F8D4000430FFF7A2FA60B90C4BD3F8D420D16A012202FA01F1D3F8E82090
:400BC00022EA0102C3F8E8202046FFF72DFEFFF779FF00E0002008B9FFF7CEFA10BD00BF7C81FF1F38B51FE0FFF7E0FE114BD3F8BC40FFF767FFBCB1FFF7D6FA0D4CD4F871
:400C0000C830DD68281DFFF773FAD4F8DC30013BC4F8DC30D4F8EC30013BC4F8EC30FFF7D5FA2846FFF784FD024BD3F8EC30002BDAD138BD7C81FF1F08B5FFF7D3FFFCE7CB
:400C4000284BD3F8F03023B10122264BC3F8FC20704710B5234B0022C3F8FC20D3F8D4301B6B1A68B2F1A53F0BD15A68B2F1A53F07D19A68B2F1A53F03D1DB68B3F1A53F71
:400C800007D0184BD3F8D400D3F8D410343100F0F9FB144AD2F8E830B3FA83F3DBB2C3F11F039800C418A10011444C6B64684C6302F130011844820008320A44944206D1CA
:400CC000606803EB83018A0006490A445063054903EB83039A000A44536BDB68C1F8D43010BD00BF7C81FF1F38B50D46144CD4F8D4101831FFF7E2F9D4F8D4000430FFF79D
:400D0000F7F958B9D4F8D420D16A012202FA01F1D4F8E82022EA0102C4F8E820B5F1FF3F06D10748D0F8D4100431FFF7BBF938BD034BD3F8D8002844FFF776FD38BD00BFFB
:400D40007C81FF1F38B5C368DC6804F118052846FFF7CEF9164BD3F8F030B3B9251D2846FFF7C6F9E36A012202FA03F11048D0F8E8200A43C0F8E820303003EB83039A009F
:400D800029461044FFF78EF903E029460948FFF789F9E26A064BD3F8D430DB6A9A4204D90120034BC3F8FC0038BD002038BD00BF7C81FF1F9081FF1F034BD3F8F4200260A6
:400DC000D3F8D830436070477C81FF1F38B504460D46FFF7E9F9124BD3F8D8202B68B3F1FF3F14D020680E49D1F8F410884202D061688A420DD26168501A83420BD98A1A94
:400E000013442B602046FFF7D7FF002404E0002402E0012400E00124FFF7D8F9204638BD7C81FF1F0122024BC3F8FC20704700BF7C81FF1F002851D038B50246C36A284935
:400E4000D1F8D410C96A8B4247D28169002906DB2349D1F8D410C96AC1F105018161506903EB830399001F4B1944884201D1012300E0002363B31546141D2046FFF738F953
:400E800080B9EA6A02EB82018B0015490B441B6B43B9012303FA02F2D1F8E83023EA0202C1F8E8200E48D0F8D430DB6AEB62012202FA03F1D0F8E8200A43C0F8E8203030AF
:400EC00003EB83039A0021461044FFF7EBF838BD034BD3F8D430DB6AD36238BD704700BF7C81FF1FAC81FF1F002838D038B50346426C013A4264C06A196C884231D092BB37
:400F00001C461D1D2846FFF7F3F880B9E26A02EB82018B0015490B441B6B43B9012303FA02F2D1F8E83023EA0202C1F8E820236CE362C3F10502A261012404FA03F10B4853
:400F4000D0F8E8200A43C0F8E820303003EB83039A0029461044FFF7A5F8204638BD00207047002038BD002038BD00BF7C81FF1F064BD3F8D4302BB1044BD3F8D420536CD1
:400F800001335364014BD3F8D40070477C81FF1F094A22F00702094BC3F838290020C3F83C0947F6F871C3F84419C3F84009516003F51463136070478482FF1F44F9FF1F00
:400FC00070B50446FFF7F2FC264BD3F848392BB9FFF7DEFF0122234BC3F8482934B1083414F0070F02D024F007040834621E47F6F6739A422BD81B49D1F8383901F6381122
:4010000001E0194613465A68944202D91A68002AF7D1154A93421CD00D6808351A680A605A68121B102A0CD91E1972605C6074680E4900E011460A6850688442FAD83260E1
:401040000E6059680A4A13685B1A136002E0002500E00025FFF736FD0DB900F017FA284670BD00BF44F9FF1F840200207C020020D080FF1FD0B170B50546A0F10806FFF7A1
:4010800095FC55F8044C0A4A00E01A46136859688C42FAD845F8083C166055F8043C054A11680B441360FFF70DFD70BD704700BF7C020020D080FF1F70B50646134B1D7871
:4010C0000021587801F058F9012000F037FF45F0FC0001F0ADF905F00F0545F00C04204601F0A6F944EA0614E4B244F0040001F09FF9012000F022FF04F0FB0001F098F928
:40110000012000F01BFF01F077F970BDD480FF1F38B50546184B1C780021587801F02CF9012000F00BFF44F0010001F081F904F0FD0040F0010001F07BF9002000F0FEFE00
:4011400004F00D0343F00104204601F071F944EA0514E4B244F0040001F06AF9012000F0EDFE04F0F90001F063F9012000F0E6FE01F042F938BD00BFD480FF1F08B50120AE
:4011800000F0DCFE08BD00BF10B50446FFF7F6FF2009FFF7BDFF04F00F00FFF7B9FF10BD38B505460078012404E0FFF7EDFF285D0134E4B20028F8D138BD00BF08B5FFF74B
:4011C000E3FF08BD10B50446FFF7D8FF2009FFF773FF04F00F00FFF76FFF10BD08B5282000F096FE0320FFF767FF052000F090FE0320FFF761FF0F2000F08AFE0320FFF7C3
:401200005BFF012000F084FE0220FFF755FF052000F07EFE0620FFF7D5FF0E20FFF7D2FF2C20FFF7CFFF0820FFF7CCFF0120FFF7C9FF0C20FFF7C6FF0320FFF7C3FF052020
:4012400000F066FE08BD00BF08B50C20FFF7BAFF0122014B1A7008BD9002002008B5054B5B7823B9FFF7BAFF0122024B5A70FFF7EBFF08BD9002002008B5032819D8DFE8F2
:4012800000F002070D1381F08000FFF79BFF08BDA1F14000C0B2FFF795FF08BDA1F16C00C0B2FFF78FFF08BDA1F12C00C0B2FFF789FF08BD08B501F0FBFA024B187000F0A8
:4012C00067FE08BDA402002000B583B0002001F043FB01F04BF9224B1868FFF709FA00283AD000231A460DF107011D480068FFF77FF99DF80730032B2BD8DFE803F0020CF1
:401300002327012001F028FB6420FFF741FC002001F022FB1DE0012001F01EFB4FF4C870FFF736FC002001F017FB6420FFF730FC012001F011FB6420FFF72AFC002001F0E6
:401340000BFB06E0022001F007FB02E0002001F003FB04238DF807300120FFF719FCBAE70003002008B5012000F0F8FC002001F0C3F908BD00B583B0002000F0EFFC01F080
:40138000C3F902A941F8040D00231A4604480068FFF7F6F8002001F0AFF903B05DF804FB0403002000B583B004238DF8073001F007FA274801F054FA264801F029FA00206D
:4013C00001F09AF9244B1868FFF792F900283AD000231A46694620480068FFF709F9009AA2F5C333A13B1D498B420BD89DF80730032B03D102238DF807301CE003238DF85E
:40140000073018E0A2F5C323A3F2812313498B4203D801238DF807300DE0A2F52A22A2F661620E4B9A4203D800238DF8073002E004238DF8073000231A460DF1070108482B
:401440000068FFF70FF80120FFF7A2FBBAE700BF6513000075130000040300203E0D0300AC020020034B044ADA62044A9A63044ADA6370470080FF1F55010000E501000071
:401480002902000008B5FEF783FEFEE708B5FEF77FFEFEE700B585B0FFF7E4FF62B6324801F08CFA01F04AFA0021032000F050FD00F0E6FDFFF7D2FE0120FFF73FF82B4BF6
:4014C0001860642000F024FD00210846FFF7D4FE2748FFF765FE00210120FFF7CDFE2548FFF75EFE4FF47A7000F012FD00240394029401940125009523464FF400721E49CC
:401500001E48FFF7B3F90394029401940323009323464FF480621A491A48FFF7A7F90394029401940223009323464FF4806216491648FFF79BF9224629460420FEF776FF8B
:40154000134B1860224629460420FEF76FFF114B1860224604210846FEF768FF0E4B1860FFF7FEF9FEE700BFB5120000A80200208433000094330000A4330000C912000009
:40158000AC330000A5130000B0330000B917000000030020AC02002004030020F0B591B00446164D01AF05F1300E3E4628686968AA68EB680FC6103537467545F5D1286861
:4015C0006968AA6807C70023184612E004EB84014A000B490A44D25C012A08D104EB84014A0010A90A441A4412F83C2C10440133DBB2092BEAD911B0F0BD00BFE032000055
:40160000C402002038B50446052829D8DFE800F00308280D1924FFF7C1FF124B188038BDFFF7BCFF0F4B588038BD0138C0B2FFF7B5FF05462046FFF7B1FF2844094B98802F
:4016400038BD084B1B880F2B0AD02D2B08D0FFF7A5FF044BD88038BDFFF7A0FF014B188138BD00BFB002002070B5A8B0284C1BAD04F13C060FCE0FC50FCE0FC50FCE0FC502
:4016800033682B600EAD70340FCC0FC50FCC0FC50FCC0FC523682B603422002101A801F0ECF91C4BDB8813F0030F01D0002100E00121012310E039B928AA02EB830252F825
:4016C000340C42F89C0C06E028AA02EB830252F8680C42F89C0C01330C2BECDD0022012311E028A901EB830151F89C1C0A44144608488088824205DB064A5381091B014420
:40170000918102E001330C2BEBDD28B070BD00BFE0320000B002002000B589B004283ED8DFE800F003113D1F30000E210120FFF7A3FD1C4B1A881C49684601F0A7F9684612
:40174000FFF72EFD2BE00B210120FFF795FD154B5A881649684601F099F96846FFF720FD1DE0FFF781FF05210120FFF785FD0D4A938952890E49684601F088F96846FFF73A
:401780000FFD0CE000210120FFF776FD054BDA880849684601F07AF96846FFF701FD09B05DF804FBB0020020B8330000C0330000C8330000D4330000F0B58BB004238DF884
:4017C00027300120FFF7FEFC834B00271F805F809F80DF801F815F819F813D463C463E467E4B1868FEF784FF002800F0F08000231A460DF1270179480068FEF7F9FE01F06F
:40180000B7F8002863D00135EDB26B1E172BE7D801A252F823F000BF79180000E1170000E117000093180000E1170000E1170000E117000093180000E1170000E1170000D1
:40184000E11700009F180000AB180000E1170000E117000093180000E1170000E1170000E117000093180000E1170000E1170000E1170000B718000000210846FFF7FCFCB4
:401880005748FFF78DFC211DC9B20020FFF7F4FCA6E74A20FFF792FC0134E4B2A0E75920FFF78CFC0134E4B29AE72020FFF786FC0134E4B294E75920FFF780FC2020FFF71C
:4018C0007DFC0234E4B2002001F04CF888E79DF82730022B03D100252C462E46012784B900210846FFF7C8FC47B132463D4901A801F0CCF801A8FFF753FC02E03A48FFF7BD
:401900004FFC211DC9B20020FFF7B6FC9DF82730022B03D14D20FFF751FC16E0032B03D15020FFF74BFC10E01BB93020FFF746FC0BE0012B03D13120FFF740FC05E0042BCB
:4019400003D13F20FFF73AFC00279DF8272006EB86014B0025490B441A550134E4B2022A12D11D4B1B883B2B03D101238DF8263002E000238DF8263000231A460DF1260170
:401980001B480068FEF76EFD9DF82730032B1ED12FB13046FFF736FE3046FFF7BDFE0E4B1B880F2B01D02D2B05D1032E03D1012000F0D8FF02E0002000F0D4FF0136F6B286
:4019C000052E01D8002402E00024264627460120FFF7DEF804E700BFB0020020AC020020DC330000F033000004340000C402002000030020FEE700BFF0B40022174611E076
:401A000050F82760F3B226F0FF0608E001EB420511F812406D78A5550132013BDBB2002BF4D101371C2FEBD9F0BC70470A4B1B78DBB203F00701094A11701B09013213700E
:401A40000122074B1A70102203F683131A704422A3F21A231A707047CF0100496E5800400D51004038B500242D4B1C80192502331D70412202331A8018232A4A13704FF41A
:401A80004E7102321180023213704FF6FF7102321180023213700622234B1A7008224FF040231A70522203F500731A701F4B1B78DBB21F4A137040F621321E4B1A8041F2A6
:401AC0005122023B1A800CE01B4B1B7803F0010343EA440404F003044FF4F07000F07CFF013D0DB1032CEFD115B90320FFF782FF124A4FF4807313800723137000231049A1
:401B00000B7048200231087013700532137002220C4B1A700C4A137843F00F03137038BD8040004086400040004300400F010049A14600402242004025420040044000405F
:401B40000640004001400040A243004008B50A46002100F092FF08BD08B500F083FF08BD38B572B6304C61232370FFF77BFF012323702E4A137843F00403137000240CE032
:401B80002B4D630019194A0011462A44084691882858FFF7DBFF0134E4B2082CF0D925494FF09040FFF728FF04212348FFF7CEFF04212248FFF7CAFF214A137843F0020321
:401BC00013701032137843F0020313701D4C237843F040032370A2F58632513A137843F010031370082218491848FFF7B5FF082217491848FFF7B0FF082217491748FFF79C
:401C0000ABFF082216491748FFF7A6FF164A137843F008031370FFF709FF0E2221461348FFF79AFF38BD00BF00480040E84600401834000074000048007600400876004026
:401C400003500140A0430040B002004802510040B8020048C2510040C002004812510040C80200482251004022430040B0430040FEE700BF08B5094B1A681044084BC31AC6
:401C8000B3F5006F02DC054B186005E000F0BEFE0C2303604FF0FF32104608BDD880FF1F2803002008B5104E104D16E029686B68AC68002204E051F8040B43F8040B043234
:401CC000A242F8D1E868002203E0002143F8041B04328242F9D11035013E002EE6D100F09BFEFFF7D7FBFEE7010000007435000008B5114A114B1A60114A136843F40073EC
:401D0000136000230AE0032B03D80E4A52F8231000E00D490D4A42F8231001332F2BF2D90B4B1A780B4B1A70084A0B4B1A60FFF717FF00F01FF808BD0004FA050CED00E054
:401D400014ED00E000000000711C00000080FF1FBC760040C080FF1F08ED00E0044A137803F0FD03400000F00200184310707047205100400B4A7F2313708021517007E0AE
:401D8000DA0002F1804202F5F042013BDBB21370002BF5D1DB0003F1804303F5F04300221A707047DC80FF1F172815D831B103010A495A5C42F020025A5405E0030107493E
:401DC0005A5C02F0DF025A540001044A835C43F00103835400207047012070471070004017280BD80001064A835C03F0F103490001F00E011943815400207047012070479F
:401E00001070004041F6FF73994201D14FF4005141F6FF739A4201D14FF40052172808D8C00000F1804000F5EC408180C280002070470120704700BF172805D8034B03EB52
:401E40000010417200207047012070471070004017281BD810B4C00000F1804404F5EC44D201D2B201F07F01114321709DF804201201D2B203F00F03134363709DF80830A4
:401E800003F00F03A3700020E07001E00120704710BC704710B500F0A7FD0A4B5B78182B0BD9084A1478013B5370E30003F1804303F5F0431B78137000E0FF2400F098FD76
:401EC000204610BDDC80FF1F10F0800F0CD111F4704F0BD1C00000F1804000F5F04001808270C37000207047012070470120704710F0800F08D1C00000F1804000F5F04068
:401F00008180C280002070470120704701BE704710B5044605E0084B186800F05DFDA4F50044B4F5004FF6D8034B586800FB04F000F052FD10BD00BFE480FF1F08B5034B30
:401F40001B7A00FB03F000F047FD08BDE480FF1F0E4B1A7802F0FC0200F00300104318701A7842F080021A701A7802F07F021A7049011A7801F0600102F09F0211431970BD
:401F80001A7842F010021A70704700BF834300400122014B1A7070478443004070B504460E46074B1D681F2802D90020FFF7AEFF04F01F04103455F8240045F8246070BD55
:401FC00008ED00E038B504460D46072902D90020FFF79CFF1F2C02D90020FFF797FF04F01F0000F1604000F564406D01EDB2057038BD00BF10B50222114B1A7081220E3BC6
:402000001A70082202331A702A2211331A70002401331C704FF400420A4B1A6007210F20FFF7D0FF08490F20FFF7B8FF1022074B1A70074B1C70074B1C70074B1C7010BD1D
:40204000D649004080E100E0A9200000080300200E030020100300200C03002008B500F0C3FC064A137843F0040313701032137843F00403137000F0BBFC08BDA543004017
:4020800008B5074B1B7823B9FFF7B4FF0122044B1A70FFF7E3FF4FF40042024B1A6008BD9202002000E100E038B5A54B1C78A54B1B7813F0400F00F03A81E4B214F0010F04
:4020C00000F01D819F4B1B78453B052B00F21481DFE813F006008200120112010600DF0004F0DF0504F00A04082C42D1954B1B78DBB2452B35D1944B1B7813F0FF0F10D047
:40210000924B1B681B78DBB2914A137004228C4B1A7001228F4B1A7046228A4B1A702C46EDE08D4B1B7813F0020F0DD08B4A137843F00A0313706022824B1A704FF40042D0
:40214000874B1A602C46DAE0864A137843F0100313701022844B1A700422023B1A702C46CDE00022764B1A704A22764B1A702C46C5E00A2C2BD1794A137843F0A003137018
:40218000754B1B7813F0020F14D06E4B1B7813F0080F01D0092300E00A23704A11780B4313706022674B1A704FF400426C4B1A602C46A4E06B4A137843F0100313701022AB
:4021C000694B1A700422023B1A702C4697E00020FFF79CFE2C4692E014F0020F36D15D4B1A78D2B2584B1B78DBB29A4210D2594A1378DBB255490968CB5CDBB254490B7046
:4022000004214F4B197013780133DBB2137076E0514B1B7813F0020F0CD0504A137843F00A0313706022474B1A704FF400424C4B1A6064E04B4A137843F010031370102297
:40224000494B1A700422023B1A7058E0424B1B7813F0020F0CD0414A137843F09A0313706022384B1A704FF400423D4B1A6046E03C4A137843F01003137010223A4B1A704B
:402280000422023B1A70354A137843F09003137035E0364A1378DBB2354908682C490978C9B2C15413780133DBB213701278D2B2304B1B78DBB29A4203D21022204B1A706D
:4022C0001DE0254B1B7813F0020F0CD0234A137843F00903137060221A4B1A704FF400421F4B1A600BE01F4A137843F0100313700022134B1A7002E00020FFF707FE14F0A7
:40230000200F1CD00F4B1B7813F0080F01D0012300E00223114A11780B431370114A137803F0EF0313701022064B1A7038BD054B1B7813F0100F02D11022024B1A7038BDA6
:40234000D7490040080300200F03002014030020D84900400C0300200D0300200E03002080E100E0D6490040D949004010030020180300201C0300201A4B1B78DBB2102B09
:4023800029D1194B1B7813F0080F26D14FF40042164B1A604000C0B229B140F001004922104B1A7002E045220E4B1A70104B1870012201331A700F4B1B7813F0010FFAD0F4
:4023C0000C4B1B7803F00A030A2B08D11022054B1A700320704702207047012070470020704700BF08030020D949004080E100E0D8490040D74900400A4B1B7813F0040F2B
:402400000ED01023074A13700421023A1170064A1370064B1B7813F0210FFAD00020704702207047D949004008030020D7490040114B1B7813F0040F1BD0104B187004228B
:40244000013B1A7046220E4B1A700E4B1B7813F0010FFAD00B4B1B7813F0020F04D16022074B1A70002070476022054B1A70032070470220704700BFD9490040D8490040EA
:4024800008030020D749004010B500F0C7F8074C01212078FFF788FC01216078FFF784FC002000F0D7F800F06FF810BD9302002070B505460E464FF48043020C0121084626
:4024C00000F070F8094C2070A078012302463146FFF7FAFC45F68232A9B2A078FFF708FDA1782078FFF7A8FC70BD00BF9302002070B505460E464FF48043020C0121084627
:4025000000F06EF8094C6070E078012302463146FFF7DAFC45F68232A9B2E078FFF7E8FCE1786078FFF788FC70BD00BF9302002010B500F0B7F8022000F07EF8002000F055
:40254000A1F8FFF7A7FC074CA070FFF7A3FCE070054C64212046FFF7ABFF64216018FFF7C7FF10BD930200205034000008B5054B1B7923B9FFF7DCFF0122024B1A71FFF707
:4025800083FF08BD93020020054A137843F0040313701032137843F004031370704700BFA2430040F0B583B016461F460B4D00242C700194009423460A4601462046FFF72D
:4025C00047FC3A4631462878FFF71CFC02212878FFF706FC287803B0F0BD00BFF480FF1FF0B583B016461F460B4C012525700023019300930A4601462846FFF729FC3A4652
:4026000031462078FFF7FEFB02212078FFF7E8FB207803B0F0BD00BFF580FF1F054A137843F0040313701032137843F004031370704700BFA8430040054B1A7802F0FD0229
:402640001A701A7800F0020010431870704700BF28580040014B1870704700BF825B0040064B1B78C3F3810303F19243063393F82831DBB2024A1370704700BF285800403E
:402680000A46004008B5064B1A7802F0F3021A701A7800F00C0010431870FFF7E1FF08BD2858004008B50020074B187001331870064A137843F008031370FFF7E3FF0220AC
:4026C000FFF7BAFF08BD00BF28580040975A0040024A137843F08003137070477E640040014B1870704700BF8E640040014B1878704700BF6E64004008B50146014800F0B0
:402700007BF908BD0C640040034B1B78034B186820F07F40704700BF0C6400404C640040024B186820F07F40704700BF4C64004008B50146014800F05FF908BD2C640040F0
:4027400008B50146014800F057F908BD3C64004008B501E0FFF7E4FFFFF7C8FF10F0400FF8D108BD08B5124A137803F0F80343F004031370137803F0FC031370FFF7E8FFEA
:402780000C48FFF7D5FF0020FFF7B6FF0C20FFF7A7FFFFF7ABFF0848FFF7D2FF00F024F9064A137843F01003137000F021F908BD7E64004040420F00DC410F009E64004010
:4027C00008B5054B1B7823B9FFF7CCFF0122024B1A70FFF77DFF08BD98020020014B1B685864704708ED00E04001C0B2014B1870704700BF01E400E00222014B1A60704737
:4028000000E100E00222014B1A60704780E100E010B50446FFF7F6FF2046FFF7DFFF0720FFF7E2FFFFF7E8FF10BD00BF014B1B681864704708ED00E04001C0B2014B1870FC
:40284000704700BF00E400E00122014B1A60704700E100E00122014B1A60704780E100E010B50446FFF7F6FF2046FFF7DFFF0720FFF7E2FFFFF7E8FF10BD00BF084A137864
:4028800043F0010313701032137843F00103137002F64D32137843F001031370704700BFA3430040014B1870704700BF034F0040014B1878704700BF034F0040014B1880DB
:4028C000704700BF044F0040014B1880704700BF064F004008B5164A137803F0010313700232137803F0FC031370124B1A7802F0CF021A701A7842F030021A701A7802F04A
:40290000F0021A701A7842F00F021A700A4A137843F00103137040F2E730FFF7CFFF40F2E730FFF7D1FF0820FFF7BCFF08BD00BF004F00400B4F0040014F004008B5054BE4
:402940001B7823B9FFF7C6FF0122024B1A70FFF795FF08BD99020020014B1870704700BF7D640040014B1870704700BF7C640040014B1878704700BF7C640040024B1B6812
:40298000C3F88400704700BF08ED00E04001C0B2014B1870704700BF11E400E04FF40032014B1A60704700BF00E100E04FF40032014B1A60704700BF80E100E010B5044648
:4029C000FFF7F4FF2046FFF7D9FF0720FFF7DEFFFFF7E4FF10BD00BF0230800803D000BF01380046FCD17047EFF3108072B6704780F31088704700BFCBB20370C1F307236C
:402A00004370C1F307418170704700BF014B1868704700BF5881FF1F0E4B70B51E460E4C0025E41AA410A54204D056F8253098470135F8E700F08CFD084B094C1E46E41A5F
:402A4000A4100025A54204D056F8253098470135F8E770BD5C3500005C3500005C3500006435000010B5431E0A44914204D011F8014B03F8014FF8E710BD034602449342E7
:402A800002D003F8011BFAE7704700000EB400B54FF402719CB0ADF814106FF00041049107914FF6FF711DAB02900690084853F8042BADF81610006802A9019300F064F859
:402AC000029B00221A701CB05DF804EB03B070475881FF1F2DE9F0478E6882469E420C46914698463ED88A8912F4906F3AD02568096902236F1A656905EB450595FBF3F5C5
:402B00007B1C43449D4238BF1D4653050FD5294600F040FB064698B13A462169FFF7A2FFA38923F4906343F08003A38113E02A4600F08EFB064670B92169504600F0DEFAE9
:402B40000C23CAF80030A3894FF0FF3043F04003A381BDE8F08726613E44266046466561ED1BA560464528BF464649463246206800F0A8FAA36800209B1BA36023681E4406
:402B80002660BDE8F08700002DE9F04F9DB003938B8980461C060D4616460DD50B695BB9402100F0F7FA2860286118B90C23C8F80030CDE040236B610023099320238DF880
:402BC0002930DFF89CB130238DF82A3037463C4614F8013B1BB9B7EB060910D003E0252BF9D02746F3E74B46324629464046FFF771FF013000F0A780099B4B4409933B7809
:402C0000002B00F0A08000234FF0FF3204930793059206938DF853301A930126052221784E4800F041FA671C049B38B14B4A3C46801A06FA00F018430490EFE7D90644BFB5
:402C400020228DF853201A0744BF2B228DF8532022782A2A03D0079A00210A200BE0039A111D12680391002A10DA524243F00200079204900BE027463B780134303B092B57
:402C800003D800FB02320121F5E701B107923B782E2B1ED17B782A2B0AD1039B02371A1D1B680392002BB8BF4FF0FF33059310E0002319460593781C0A2407463A780130D6
:402CC000303A092A03D804FB01210123F5E703B1059103223978224800F0E6F940B14023CBEB000003FA00F0049B013718430490397806221B487E1C8DF8281000F0D4F9D5
:402D000088B1194B33B9039B073323F007030833039314E003AB00932A46144B04A94046AFF3008007E003AB00932A460F4B04A9404600F093F8B0F1FF3F824603D0099B2D
:402D40005344099342E7AB895B0601D4099801E04FF0FF301DB0BDE8F08F00BF1A350000203500002435000000000000D52A00002DE9F04791461F460A698B6806469342E1
:402D8000B8BF1346C9F8003091F843200C46DDF8208012B10133C9F800302368990642BFD9F800300233C9F80030256815F0060510D104F1190A07E0012352463946304637
:402DC000C04701301AD00135E368D9F800209B1A9D42F1DB94F843302268003318BF012392060FD5E118302081F843005A1C94F845102244023382F8431003E04FF0FF3097
:402E0000BDE8F08704F1430239463046C0470130F4D02268D9F80050E36802F00602042A08BF5D1B2269A3680CBF25EAE57500259342C4BF9B1AED184FF000091A344D45C5
:402E400009D00123224639463046C0470130D5D009F10109F3E70020BDE8F0872DE9F04317460A7E85B06E2A984606460C460C9B01F1430E00F0AE8011D8632A22D009D839
:402E8000002A00F0BB80582A40F0CA8081F84520834955E0642A1ED0692A1CD0C0E0732A00F0B08009D86F2A2ED0702A40F0B8800A6842F020020A603EE0752A24D0782A8D
:402EC0003AD0ADE01A6801F14205111D1960136884F84230A8E021681A6811F0800F02D0111D196008E011F0400F02F10401196002D0B2F9003000E01368002B3CDA2D2293
:402F00005B4284F8432037E021681A6811F0800F02D0111D196007E011F0400F02F10401196001D0138800E01368227E5C496F2A14BF0A2208221BE078225A4984F845205B
:402F40002268186812F0800F00F104051D6003D1550601D5038800E00368D00744BF42F0200222601BB9226822F0200222601022002084F8430001E049490A226568002DF6
:402F8000A56008DB206820F0040020602BB9002D7DD175460CE0002B79D07546B3FBF2F002FB1033CB5C05F8013D03460028F5D1082A0BD12368DA0708D5236962689A42E6
:402FC000DEBF302305F8013C05F1FF35C5EB0E0323612EE008681A6810F0800F496903D0101D1860136808E010F0400F02F104001860136801D0198000E019600023236179
:40300000754616E01A68111D1960156800216268284600F049F808B1401B6060636804E004F1420584F8422001232361002384F84330CDF800803B4603AA21463046FFF712
:4030400097FE013002D14FF0FF3026E023692A4639463046C0470130F5D023689B0710D5002504F1190907E001234A4639463046C0470130E7D00135E368039A9B1A9D42D6
:40308000F2DBE068039B9842B8BF184605E00B7804F1420584F842308AE705B0BDE8F0832B3500003C35000010B5C9B202449042034605D01C7801308C42F8D1184610BD10
:4030C000002010BD884210B501EB020301D8421E0BE09842FBD28118D21AD34204D013F8014D01F8014DF8E710BD994204D011F8014B02F8014FF8E710BD000038B50546AC
:40310000002944D051F8043C0C1F002BB8BFE41800F0D4F81E4A1368114613B96360146030E0A3420DD92268A018834201BF18685B681218226063600C6023E0A24203D885
:4031400013465A68002AF9D118681918A1420BD12168014458188242196013D110685268014419605A600DE002D90C232B6009E021686018824201BF106852680918216003
:4031800062605C602846BDE8384000F098B838BDA002002070B5CD1C25F0030508350C2D38BF0C25002D064601DBA94202D90C23336046E000F082F8234B1C681A46214620
:4031C000A1B10B685B1B0ED40B2B03D90B60CC18CD501EE08C420BBF63684B681360636018BF0C4615E00C464968E9E7174C23681BB9304600F052F820602946304600F032
:403200004DF8431C18D0C41C24F00304A0420DD12560304600F053F804F10B00231D20F00700C31A0ED05A42E25070BD211A304600F034F80130EBD10C233360304600F022
:403240003EF8002070BD00BFA00200209C020020F8B5074615460E4621B91146BDE8F840FFF798BF1AB9FFF749FF2846F8BD00F027F885420ED929463846FFF78BFF0446E0
:4032800050B131462A46FFF7EDFB31463846FFF735FF01E03046F8BD2046F8BD38B5064C0023054608462360FEF7E4FC431C02D1236803B12B6038BD20030020704770470D
:4032C00051F8040C0028BEBF091851F8043CC018043870470000000049444C45000000000028140A0008040201000000140A0008040201000000C864005028140A000804ED
:403300000201000000000000005028140A080402010004020100000000000000000000001F0000001C0000001F0000001E0000001F0000001E0000001F0000001F000000EB
:403340001E0000001F0000001E0000001F000000000000001F0000001D0000001F0000001E0000001F0000001E0000001F0000001F0000001E0000001F0000001E00000084
:403380001F0000004A4A592052656365697665720000000067657474696E67207374617274656400544F4E45000000004A4A5900434C43440000000025303264000000007F
:4033C000253032643A000000253032642F253032642000003230253032642F0028342920202020202020202020202020000000002825642920202020202020202020202088
:40340000200000002878292020202020202020202020202000000000C84900401900004F00400C00305100404000F05100401000000001400010001401400008004001403D
:40344000000A004C01400002005001402000000080808080808080808080808080808080808080808080808080808080808080808080808080808080808080808080808002
:403480008080808080808080808080808080808080808080808080808080808080808080808080808080808080808080808080808080808080878F979FA6AEB5BCC2C9CF21
:4034C000D5DBE0E5E9EDF1F4F6F9FAFCFCFCFCFCFAF9F6F4F1EDE9E5E0DBD5CFC9C2BCB5AEA69F978F87807870686059514A433D36302A241F1A16120E0B09060503030354
:4035000003030506090B0E12161A1F242A30363D434A5159606870784300232D302B2000686C4C006566674546470030313233343536373839414243444546003031323385
:4035400034353637383961626364656600000000F8B500BFF8BC08BC9E4670474D000000F11C0000F8B500BFF8BC08BC9E4670472900000088350000C880FF1F9800000073
:40358000C88100000000000000000000AAAAAAAAF87F000008270000280300207F800000030000000000E880D0010100420000008014EF03FFFF0000000000000000000027
:4035C000000000000000000000000000000000000000000000000000183500000000000000000000000000000000000000000000000000000000000000000000000000007E
:40360000000000000000000000000000000000000000000000000000F880FF1F000000000000000000000000000000000000000000000000000000000000000000000000F4
:40364000000000000000000000000000000000000000000000000000000000000000000000000000000000000000000000000000000000000000000000000000000000004A
:40368000000000000000000000000000000000000000000000000000000000000000000000000000000000000000000000000000000000000000000000000000000000000A
:4036C00000000000000000000000000000000000000000000000000000000000000000000000000000000000000000000000000000000000000000000000000000000000CA
:403700000000000000000000000000000000000000000000000000000000000000000000000000000000000000000000000000000000000000000000000000000000000089
:020000040003F7
:0200000480007A
:40000000024F004001520040015A0040016400400203014001050140040601400407014006090140060B01403F0C01401E0D01402F0E0140220F014004150140041B0140F4
:40004000064001400741014005420140094301400345014002460140024701400648014012490140064C0140064D0140025001400351014001300A27600297018E67E2080A
:40008000E608EA21B902BF01D904DF0121018501E403EC20834084109C109F40B110EC2095209C109F40AB20B201EA204064410349FF4AFF4BFF4DA04F0150185A045B04D8
:4000C0005F016040628064406540668068406A506BA86C406D206E506FA881018302850887048B0C8F0195109702B110B304B503B708BF45C061C103C9FFCAFFCBFFCDAF39
:40010000CE07CF01D018D608D904DA04DB04DC20DF01E040E280E440E540E680E840EA50EBA8EC40ED20EE50EFA82004228123203208380639604140422044104660491059
:400140004F205B40600169406C0186889180940199109A409E20A310CC02CE0FD0CAD224D608D808E208010302030C01110112011C08220C300231023208340136043701A0
:400180003E143F4040614103455246C0470E481F49FF4AFF4BFF4DAF4E074F01501852805407580459045A045B045F016040628064406540668068406A506BA86C406D20EA
:4001C0006E506FA800410A411240184019141A011B102102224031023B014140422049104A104B0151405254582059045A805C205E2062147240C009C209C408CC01CE01A7
:40020000D00AD204D60ED806E008E401EA05EE08E008E401EA05EE08312036203A043D10CC30CE60853095109E04A520A620E210E6103E10AA04B220CE20EA806A028010FB
:40024000860196109F20B320DC20E480E6400B808740C2083020CC08B020EC0420102720941096109F20C8C01220164075027B02822086409902A302AA10AB02AD02C43003
:40028000DC80DE20E010E480EAA0EE10132814207B107F40C40EDE03831087409780A710AB28AC2000050E05000F03C0100A000000000000000001000000030003000000CA
:4002C000000B0B00000000001002020000000000000000000000000000000000000000000000000000000000000000000000000000000000000000000000000000000000D4
:4003000000000000000000000000000000000000000000000000000000000000000000000000000000000000000000000000000000000000000000000000000000000000BD
:40034000000000000000000000000000000000000000000000000000000000000000000000000000000000000000000000000000000000000000000000000000000000007D
:40038000000000000000000000000000000000000000000000000000000000000000000000000000000000000000000000000000000000000000000000000000000000003D
:4003C00000000000000000000000000000000000000000000000000000000000000000000000000000000000000000000000000000000000000000000000000000000000FD
:0200000490006A
:0400000000004005B7
:0200000490105A
:04000000BC90ACAF55
:0200000490303A
:020000002D3A97
:0200000490402A
:4000000000000000000000000000000000000000000000000000000000000000000000000000000000000000000000000000000000000000000000000000000000000000C0
:400040000000000000000000000000000000000000000000000000000000000000000000000000000000000000000000000000000000000000000000000000000000000080
:400080000000000000000000000000000000000000000000000000000000000000000000000000000000000000000000000000000000000000000000000000000000000040
:4000C0000000000000000000000000000000000000000000000000000000000000000000000000000000000000000000000000000000000000000000000000000000000000
:0200000490501A
:0C00000000012E16106900012E2C3DA3FB
:00000001FF